{"src/PuppyRaffle.sol":{"PuppyRaffle":{"abi":[{"type":"constructor","inputs":[{"name":"_entranceFee","type":"uint256","internalType":"uint256"},{"name":"_feeAddress","type":"address","internalType":"address"},{"name":"_raffleDuration","type":"uint256","internalType":"uint256"}],"stateMutability":"nonpayable"},{"type":"function","name":"COMMON_RARITY","inputs":[],"outputs":[{"name":"","type":"uint256","internalType":"uint256"}],"stateMutability":"view"},{"type":"function","name":"LEGENDARY_RARITY","inputs":[],"outputs":[{"name":"","type":"uint256","internalType":"uint256"}],"stateMutability":"view"},{"type":"function","name":"RARE_RARITY","inputs":[],"outputs":[{"name":"","type":"uint256","internalType":"uint256"}],"stateMutability":"view"},{"type":"function","name":"approve","inputs":[{"name":"to","type":"address","internalType":"address"},{"name":"tokenId","type":"uint256","internalType":"uint256"}],"outputs":[],"stateMutability":"nonpayable"},{"type":"function","name":"balanceOf","inputs":[{"name":"owner","type":"address","internalType":"address"}],"outputs":[{"name":"","type":"uint256","internalType":"uint256"}],"stateMutability":"view"},{"type":"function","name":"baseURI","inputs":[],"outputs":[{"name":"","type":"string","internalType":"string"}],"stateMutability":"view"},{"type":"function","name":"changeFeeAddress","inputs":[{"name":"newFeeAddress","type":"address","internalType":"address"}],"outputs":[],"stateMutability":"nonpayable"},{"type":"function","name":"enterRaffle","inputs":[{"name":"newPlayers","type":"address[]","internalType":"address[]"}],"outputs":[],"stateMutability":"payable"},{"type":"function","name":"entranceFee","inputs":[],"outputs":[{"name":"","type":"uint256","internalType":"uint256"}],"stateMutability":"view"},{"type":"function","name":"feeAddress","inputs":[],"outputs":[{"name":"","type":"address","internalType":"address"}],"stateMutability":"view"},{"type":"function","name":"getActivePlayerIndex","inputs":[{"name":"player","type":"address","internalType":"address"}],"outputs":[{"name":"","type":"uint256","internalType":"uint256"}],"stateMutability":"view"},{"type":"function","name":"getApproved","inputs":[{"name":"tokenId","type":"uint256","internalType":"uint256"}],"outputs":[{"name":"","type":"address","internalType":"address"}],"stateMutability":"view"},{"type":"function","name":"isApprovedForAll","inputs":[{"name":"owner","type":"address","internalType":"address"},{"name":"operator","type":"address","internalType":"address"}],"outputs":[{"name":"","type":"bool","internalType":"bool"}],"stateMutability":"view"},{"type":"function","name":"name","inputs":[],"outputs":[{"name":"","type":"string","internalType":"string"}],"stateMutability":"view"},{"type":"function","name":"owner","inputs":[],"outputs":[{"name":"","type":"address","internalType":"address"}],"stateMutability":"view"},{"type":"function","name":"ownerOf","inputs":[{"name":"tokenId","type":"uint256","internalType":"uint256"}],"outputs":[{"name":"","type":"address","internalType":"address"}],"stateMutability":"view"},{"type":"function","name":"players","inputs":[{"name":"","type":"uint256","internalType":"uint256"}],"outputs":[{"name":"","type":"address","internalType":"address"}],"stateMutability":"view"},{"type":"function","name":"previousWinner","inputs":[],"outputs":[{"name":"","type":"address","internalType":"address"}],"stateMutability":"view"},{"type":"function","name":"raffleDuration","inputs":[],"outputs":[{"name":"","type":"uint256","internalType":"uint256"}],"stateMutability":"view"},{"type":"function","name":"raffleStartTime","inputs":[],"outputs":[{"name":"","type":"uint256","internalType":"uint256"}],"stateMutability":"view"},{"type":"function","name":"rarityToName","inputs":[{"name":"","type":"uint256","internalType":"uint256"}],"outputs":[{"name":"","type":"string","internalType":"string"}],"stateMutability":"view"},{"type":"function","name":"rarityToUri","inputs":[{"name":"","type":"uint256","internalType":"uint256"}],"outputs":[{"name":"","type":"string","internalType":"string"}],"stateMutability":"view"},{"type":"function","name":"refund","inputs":[{"name":"playerIndex","type":"uint256","internalType":"uint256"}],"outputs":[],"stateMutability":"nonpayable"},{"type":"function","name":"renounceOwnership","inputs":[],"outputs":[],"stateMutability":"nonpayable"},{"type":"function","name":"safeTransferFrom","inputs":[{"name":"from","type":"address","internalType":"address"},{"name":"to","type":"address","internalType":"address"},{"name":"tokenId","type":"uint256","internalType":"uint256"}],"outputs":[],"stateMutability":"nonpayable"},{"type":"function","name":"safeTransferFrom","inputs":[{"name":"from","type":"address","internalType":"address"},{"name":"to","type":"address","internalType":"address"},{"name":"tokenId","type":"uint256","internalType":"uint256"},{"name":"_data","type":"bytes","internalType":"bytes"}],"outputs":[],"stateMutability":"nonpayable"},{"type":"function","name":"selectWinner","inputs":[],"outputs":[],"stateMutability":"nonpayable"},{"type":"function","name":"setApprovalForAll","inputs":[{"name":"operator","type":"address","internalType":"address"},{"name":"approved","type":"bool","internalType":"bool"}],"outputs":[],"stateMutability":"nonpayable"},{"type":"function","name":"supportsInterface","inputs":[{"name":"interfaceId","type":"bytes4","internalType":"bytes4"}],"outputs":[{"name":"","type":"bool","internalType":"bool"}],"stateMutability":"view"},{"type":"function","name":"symbol","inputs":[],"outputs":[{"name":"","type":"string","internalType":"string"}],"stateMutability":"view"},{"type":"function","name":"tokenByIndex","inputs":[{"name":"index","type":"uint256","internalType":"uint256"}],"outputs":[{"name":"","type":"uint256","internalType":"uint256"}],"stateMutability":"view"},{"type":"function","name":"tokenIdToRarity","inputs":[{"name":"","type":"uint256","internalType":"uint256"}],"outputs":[{"name":"","type":"uint256","internalType":"uint256"}],"stateMutability":"view"},{"type":"function","name":"tokenOfOwnerByIndex","inputs":[{"name":"owner","type":"address","internalType":"address"},{"name":"index","type":"uint256","internalType":"uint256"}],"outputs":[{"name":"","type":"uint256","internalType":"uint256"}],"stateMutability":"view"},{"type":"function","name":"tokenURI","inputs":[{"name":"tokenId","type":"uint256","internalType":"uint256"}],"outputs":[{"name":"","type":"string","internalType":"string"}],"stateMutability":"view"},{"type":"function","name":"totalFees","inputs":[],"outputs":[{"name":"","type":"uint64","internalType":"uint64"}],"stateMutability":"view"},{"type":"function","name":"totalSupply","inputs":[],"outputs":[{"name":"","type":"uint256","internalType":"uint256"}],"stateMutability":"view"},{"type":"function","name":"transferFrom","inputs":[{"name":"from","type":"address","internalType":"address"},{"name":"to","type":"address","internalType":"address"},{"name":"tokenId","type":"uint256","internalType":"uint256"}],"outputs":[],"stateMutability":"nonpayable"},{"type":"function","name":"transferOwnership","inputs":[{"name":"newOwner","type":"address","internalType":"address"}],"outputs":[],"stateMutability":"nonpayable"},{"type":"function","name":"withdrawFees","inputs":[],"outputs":[],"stateMutability":"nonpayable"},{"type":"event","name":"Approval","inputs":[{"name":"owner","type":"address","indexed":true,"internalType":"address"},{"name":"approved","type":"address","indexed":true,"internalType":"address"},{"name":"tokenId","type":"uint256","indexed":true,"internalType":"uint256"}],"anonymous":false},{"type":"event","name":"ApprovalForAll","inputs":[{"name":"owner","type":"address","indexed":true,"internalType":"address"},{"name":"operator","type":"address","indexed":true,"internalType":"address"},{"name":"approved","type":"bool","indexed":false,"internalType":"bool"}],"anonymous":false},{"type":"event","name":"FeeAddressChanged","inputs":[{"name":"newFeeAddress","type":"address","indexed":false,"internalType":"address"}],"anonymous":false},{"type":"event","name":"OwnershipTransferred","inputs":[{"name":"previousOwner","type":"address","indexed":true,"internalType":"address"},{"name":"newOwner","type":"address","indexed":true,"internalType":"address"}],"anonymous":false},{"type":"event","name":"RaffleEnter","inputs":[{"name":"newPlayers","type":"address[]","indexed":false,"internalType":"address[]"}],"anonymous":false},{"type":"event","name":"RaffleRefunded","inputs":[{"name":"player","type":"address","indexed":false,"internalType":"address"}],"anonymous":false},{"type":"event","name":"Transfer","inputs":[{"name":"from","type":"address","indexed":true,"internalType":"address"},{"name":"to","type":"address","indexed":true,"internalType":"address"},{"name":"tokenId","type":"uint256","indexed":true,"internalType":"uint256"}],"anonymous":false}],"userdoc":{},"devdoc":{},"evm":{"bytecode":{"object":"600f8054600160a01b600160e01b0319169055610100604052603560a081815290620037b060c03980516200003d91601391602090910190620004a5565b50604051806060016040528060358152602001620037e56035913980516200006e91601491602090910190620004a5565b506040518060600160405280603581526020016200377b6035913980516200009f91601591602090910190620004a5565b50348015620000ad57600080fd5b506040516200381a3803806200381a83398181016040526060811015620000d357600080fd5b50805160208083015160409384015184518086018652600c81526b507570707920526166666c6560a01b8185015285518087019096526002865261282960f11b93860193909352929390929190620001326301ffc9a760e01b6200041c565b815162000147906006906020850190620004a5565b5080516200015d906007906020840190620004a5565b50620001706380ac58cd60e01b6200041c565b62000182635b5e139f60e01b6200041c565b6200019463780e9d6360e01b6200041c565b5060009050620001a3620004a1565b600a80546001600160a01b0319166001600160a01b038316908117909155604051919250906000907f8be0079c531659141344cd1fd0a4f28419497f9722a3daafe3b4186f6b6457e0908290a3506080839052600f80546001600160a01b0319166001600160a01b038416179055600c81905542600d55604660005260116020526013805462000268917f5b7f6fa27cbdd877c784e5cd6f1e7b2e2ecfccc0fd6ec81e33b8acc96c2c12c991600261010060018316150260001901909116046200053a565b506019600052601160205260148054620002b7917fbd257726630d6fa81014c2a632bd8ba73882fff9da9629e2e56f50f9e7161fcf91600260001961010060018416150201909116046200053a565b50600560005260116020526015805462000306917fc550213cee30afd5e67ccba7be3d381bbc169034ae08eb3ec9168caca9fe55e791600260001961010060018416150201909116046200053a565b5060408051808201909152600681526531b7b6b6b7b760d11b602080830191825260466000526012905290516200035f917f35f893b72ce0d9e4576e154d39495c618a5a26dd034e3e870883107ad973755f91620004a5565b506040805180820190915260048152637261726560e01b60208083019182526019600052601290529051620003b6917f799a11cccb7c7d688c679c3a3d7f03e6af337f5bda872b434ee1b298e35f586b91620004a5565b506040805180820190915260098152686c6567656e6461727960b81b6020808301918252600560005260129052905162000412917f45429b9195d4ec5c0cf6c69e9c21a4ca0ea773b702c2de5735f85d2631f2674691620004a5565b50505050620005db565b6001600160e01b031980821614156200047c576040805162461bcd60e51b815260206004820152601c60248201527f4552433136353a20696e76616c696420696e7465726661636520696400000000604482015290519081900360640190fd5b6001600160e01b0319166000908152602081905260409020805460ff19166001179055565b3390565b828054600181600116156101000203166002900490600052602060002090601f016020900481019282620004dd576000855562000528565b82601f10620004f857805160ff191683800117855562000528565b8280016001018555821562000528579182015b82811115620005285782518255916020019190600101906200050b565b5062000536929150620005c4565b5090565b828054600181600116156101000203166002900490600052602060002090601f01602090048101928262000572576000855562000528565b82601f1062000585578054855562000528565b828001600101855582156200052857600052602060002091601f016020900482015b8281111562000528578254825591600101919060010190620005a7565b5b80821115620005365760008155600101620005c5565b6080516131766200060560003980610cf25280610f88528061138d5280611b9d52506131766000f3fe6080604052600436106102305760003560e01c8063649677e11161012e578063b88d4fde116100ab578063db2cea751161006f578063db2cea7514610860578063e1a0f7e714610893578063e985e9c514610936578063f2fde38b14610971578063f71d96cb146109a457610230565b8063b88d4fde14610724578063bd71a521146107f7578063bd7c40c71461080c578063c87b56dd14610821578063db2c0b911461084b57610230565b80638da5cb5b116100f25780638da5cb5b1461068057806395d89b4114610695578063970c76e1146106aa578063a22cb465146106d4578063b2f8846b1461070f57610230565b8063649677e1146105e45780636be88980146105f95780636c0360eb1461062357806370a0823114610638578063715018a61461066b57610230565b80632f745c59116101bc578063476343ee11610180578063476343ee1461053c5780634a038beb146105515780634f6ccce71461057b5780635c6059ee146105a55780636352211e146105ba57610230565b80632f745c591461048157806333a99e04146104ba5780633be539ee146104cf57806341275358146104e457806342842e0e146104f957610230565b806313114a9d1161020357806313114a9d1461038857806318160ddd146103ba57806323b872dd146103e1578063278ecde114610424578063285e14061461044e57610230565b806301ffc9a71461023557806306fdde031461027d578063081812fc14610307578063095ea7b31461034d575b600080fd5b34801561024157600080fd5b506102696004803603602081101561025857600080fd5b50356001600160e01b0319166109ce565b604080519115158252519081900360200190f35b34801561028957600080fd5b506102926109f1565b6040805160208082528351818301528351919283929083019185019080838360005b838110156102cc5781810151838201526020016102b4565b50505050905090810190601f1680156102f95780820380516001836020036101000a031916815260200191505b509250505060405180910390f35b34801561031357600080fd5b506103316004803603602081101561032a57600080fd5b5035610a87565b604080516001600160a01b039092168252519081900360200190f35b34801561035957600080fd5b506103866004803603604081101561037057600080fd5b506001600160a01b038135169060200135610ae9565b005b34801561039457600080fd5b5061039d610bc4565b6040805167ffffffffffffffff9092168252519081900360200190f35b3480156103c657600080fd5b506103cf610bdb565b60408051918252519081900360200190f35b3480156103ed57600080fd5b506103866004803603606081101561040457600080fd5b506001600160a01b03813581169160208101359091169060400135610bec565b34801561043057600080fd5b506103866004803603602081101561044757600080fd5b5035610c43565b34801561045a57600080fd5b506103866004803603602081101561047157600080fd5b50356001600160a01b0316610d83565b34801561048d57600080fd5b506103cf600480360360408110156104a457600080fd5b506001600160a01b038135169060200135610e4b565b3480156104c657600080fd5b50610386610e76565b3480156104db57600080fd5b506103cf611165565b3480156104f057600080fd5b5061033161116b565b34801561050557600080fd5b506103866004803603606081101561051c57600080fd5b506001600160a01b0381358116916020810135909116906040013561117a565b34801561054857600080fd5b50610386611195565b34801561055d57600080fd5b506102926004803603602081101561057457600080fd5b50356112a3565b34801561058757600080fd5b506103cf6004803603602081101561059e57600080fd5b503561133e565b3480156105b157600080fd5b50610331611354565b3480156105c657600080fd5b50610331600480360360208110156105dd57600080fd5b5035611363565b3480156105f057600080fd5b506103cf61138b565b34801561060557600080fd5b506103cf6004803603602081101561061c57600080fd5b50356113af565b34801561062f57600080fd5b506102926113c1565b34801561064457600080fd5b506103cf6004803603602081101561065b57600080fd5b50356001600160a01b0316611422565b34801561067757600080fd5b5061038661148a565b34801561068c57600080fd5b50610331611548565b3480156106a157600080fd5b50610292611557565b3480156106b657600080fd5b50610292600480360360208110156106cd57600080fd5b50356115b8565b3480156106e057600080fd5b50610386600480360360408110156106f757600080fd5b506001600160a01b0381351690602001351515611620565b34801561071b57600080fd5b506103cf611725565b34801561073057600080fd5b506103866004803603608081101561074757600080fd5b6001600160a01b0382358116926020810135909116916040820135919081019060808101606082013564010000000081111561078257600080fd5b82018360208201111561079457600080fd5b803590602001918460018302840111640100000000831117156107b657600080fd5b91908080601f01602080910402602001604051908101604052809392919081815260200183838082843760009201919091525092955061172b945050505050565b34801561080357600080fd5b506103cf611789565b34801561081857600080fd5b506103cf61178e565b34801561082d57600080fd5b506102926004803603602081101561084457600080fd5b5035611793565b34801561085757600080fd5b506103cf611b3c565b34801561086c57600080fd5b506103cf6004803603602081101561088357600080fd5b50356001600160a01b0316611b41565b610386600480360360208110156108a957600080fd5b8101906020810181356401000000008111156108c457600080fd5b8201836020820111156108d657600080fd5b803590602001918460208302840111640100000000831117156108f857600080fd5b919080806020026020016040519081016040528093929190818152602001838360200280828437600092019190915250929550611b99945050505050565b34801561094257600080fd5b506102696004803603604081101561095957600080fd5b506001600160a01b0381358116916020013516611d9f565b34801561097d57600080fd5b506103866004803603602081101561099457600080fd5b50356001600160a01b0316611dcd565b3480156109b057600080fd5b50610331600480360360208110156109c757600080fd5b5035611ee2565b6001600160e01b0319811660009081526020819052604090205460ff165b919050565b60068054604080516020601f6002600019610100600188161502019095169490940493840181900481028201810190925282815260609390929091830182828015610a7d5780601f10610a5257610100808354040283529160200191610a7d565b820191906000526020600020905b815481529060010190602001808311610a6057829003601f168201915b5050505050905090565b6000610a9282611f0c565b610acd5760405162461bcd60e51b815260040180806020018281038252602c815260200180612fb8602c913960400191505060405180910390fd5b506000908152600460205260409020546001600160a01b031690565b6000610af482611363565b9050806001600160a01b0316836001600160a01b03161415610b475760405162461bcd60e51b81526004018080602001828103825260218152602001806130436021913960400191505060405180910390fd5b806001600160a01b0316610b59611f19565b6001600160a01b03161480610b7a5750610b7a81610b75611f19565b611d9f565b610bb55760405162461bcd60e51b8152600401808060200182810382526038815260200180612e9b6038913960400191505060405180910390fd5b610bbf8383611f1d565b505050565b600f54600160a01b900467ffffffffffffffff1681565b6000610be76002611f8b565b905090565b610bfd610bf7611f19565b82611f96565b610c385760405162461bcd60e51b81526004018080602001828103825260318152602001806130946031913960400191505060405180910390fd5b610bbf83838361203a565b6000600b8281548110610c5257fe5b6000918252602090912001546001600160a01b03169050338114610ca75760405162461bcd60e51b8152600401808060200182810382526027815260200180612d396027913960400191505060405180910390fd5b6001600160a01b038116610cec5760405162461bcd60e51b8152600401808060200182810382526036815260200180612fe46036913960400191505060405180910390fd5b610d16337f0000000000000000000000000000000000000000000000000000000000000000612186565b6000600b8381548110610d2557fe5b60009182526020918290200180546001600160a01b0319166001600160a01b03938416179055604080519284168352517fcada6d5a24d75e568453894e32683a8a5e6421131f8df496749af47c49a932879281900390910190a15050565b610d8b611f19565b6001600160a01b0316610d9c611548565b6001600160a01b031614610df7576040805162461bcd60e51b815260206004820181905260248201527f4f776e61626c653a2063616c6c6572206973206e6f7420746865206f776e6572604482015290519081900360640190fd5b600f80546001600160a01b0383166001600160a01b0319909116811790915560408051918252517fd1e93c69f2847f79bfa4d71704aaa84a581729b4b1706d922ee42ba1848a45c99181900360200190a150565b6001600160a01b0382166000908152600160205260408120610e6d908361226b565b90505b92915050565b600c54600d5401421015610ed1576040805162461bcd60e51b815260206004820152601c60248201527f5075707079526166666c653a20526166666c65206e6f74206f76657200000000604482015290519081900360640190fd5b600b5460041115610f135760405162461bcd60e51b81526004018080602001828103825260248152602001806130f66024913960400191505060405180910390fd5b600b54604080513360601b6020808301919091524260348301524460548084019190915283518084039091018152607490920190925280519101206000919081610f5957fe5b0690506000600b8281548110610f6b57fe5b6000918252602082200154600b546001600160a01b0390911692507f000000000000000000000000000000000000000000000000000000000000000002906064605083020490506000606460148402600f805467ffffffffffffffff600160a01b8083048216959094049485011690920267ffffffffffffffff60a01b1990921691909117905590506000610ffe610bdb565b905060006064334460405160200180836001600160a01b031660601b8152601401828152602001925050506040516020818303038152906040528051906020012060001c8161104957fe5b0690506046811161106b5760008281526010602052604090206046905561109d565b605f811161108a5760008281526010602052604090206019905561109d565b6000828152601060205260409020600590555b6110a9600b6000612cb8565b42600d55600e80546001600160a01b0319166001600160a01b0388169081179091556040516000919086908381818185875af1925050503d806000811461110c576040519150601f19603f3d011682016040523d82523d6000602084013e611111565b606091505b50509050806111515760405162461bcd60e51b81526004018080602001828103825260308152602001806130646030913960400191505060405180910390fd5b61115b8784612277565b5050505050505050565b600d5481565b600f546001600160a01b031681565b610bbf8383836040518060200160405280600081525061172b565b600f54600160a01b900467ffffffffffffffff1647146111e65760405162461bcd60e51b8152600401808060200182810382526030815260200180612f266030913960400191505060405180910390fd5b600f805467ffffffffffffffff60a01b19811690915560405167ffffffffffffffff600160a01b830416916000916001600160a01b039091169083908381818185875af1925050503d806000811461125a576040519150601f19603f3d011682016040523d82523d6000602084013e61125f565b606091505b505090508061129f5760405162461bcd60e51b8152600401808060200182810382526024815260200180612d156024913960400191505060405180910390fd5b5050565b60116020908152600091825260409182902080548351601f6002600019610100600186161502019093169290920491820184900484028101840190945280845290918301828280156113365780601f1061130b57610100808354040283529160200191611336565b820191906000526020600020905b81548152906001019060200180831161131957829003601f168201915b505050505081565b60008061134c600284612291565b509392505050565b600e546001600160a01b031681565b6000610e7082604051806060016040528060298152602001612efd60299139600291906122ad565b7f000000000000000000000000000000000000000000000000000000000000000081565b60106020526000908152604090205481565b60098054604080516020601f6002600019610100600188161502019095169490940493840181900481028201810190925282815260609390929091830182828015610a7d5780601f10610a5257610100808354040283529160200191610a7d565b60006001600160a01b0382166114695760405162461bcd60e51b815260040180806020018281038252602a815260200180612ed3602a913960400191505060405180910390fd5b6001600160a01b0382166000908152600160205260409020610e7090611f8b565b611492611f19565b6001600160a01b03166114a3611548565b6001600160a01b0316146114fe576040805162461bcd60e51b815260206004820181905260248201527f4f776e61626c653a2063616c6c6572206973206e6f7420746865206f776e6572604482015290519081900360640190fd5b600a546040516000916001600160a01b0316907f8be0079c531659141344cd1fd0a4f28419497f9722a3daafe3b4186f6b6457e0908390a3600a80546001600160a01b0319169055565b600a546001600160a01b031690565b60078054604080516020601f6002600019610100600188161502019095169490940493840181900481028201810190925282815260609390929091830182828015610a7d5780601f10610a5257610100808354040283529160200191610a7d565b60126020908152600091825260409182902080548351601f6002600019610100600186161502019093169290920491820184900484028101840190945280845290918301828280156113365780601f1061130b57610100808354040283529160200191611336565b611628611f19565b6001600160a01b0316826001600160a01b0316141561168e576040805162461bcd60e51b815260206004820152601960248201527f4552433732313a20617070726f766520746f2063616c6c657200000000000000604482015290519081900360640190fd5b806005600061169b611f19565b6001600160a01b03908116825260208083019390935260409182016000908120918716808252919093529120805460ff1916921515929092179091556116df611f19565b6001600160a01b03167f17307eab39ab6107e8899845ad3d59bd9653f200f220920489ca2b5937696c318360405180821515815260200191505060405180910390a35050565b600c5481565b61173c611736611f19565b83611f96565b6117775760405162461bcd60e51b81526004018080602001828103825260318152602001806130946031913960400191505060405180910390fd5b611783848484846122c4565b50505050565b604681565b600581565b606061179e82611f0c565b6117d95760405162461bcd60e51b815260040180806020018281038252602c815260200180612de5602c913960400191505060405180910390fd5b6000828152601060209081526040808320548084526011835281842080548351601f6002600019610100600186161502019093169290920491820186900486028101860190945280845291949390919083018282801561187a5780601f1061184f5761010080835404028352916020019161187a565b820191906000526020600020905b81548152906001019060200180831161185d57829003601f168201915b50505060008581526012602090815260408083208054825160026001831615610100026000190190921691909104601f8101859004850282018501909352828152969750929594509192508301828280156119165780601f106118eb57610100808354040283529160200191611916565b820191906000526020600020905b8154815290600101906020018083116118f957829003601f168201915b50505050509050611925612316565b611a836119306109f1565b83856040516020018080683d913730b6b2911d1160b91b81525060090184805190602001908083835b602083106119785780518252601f199092019160209182019101611959565b6001836020036101000a0380198251168184511680821785525050505050509050018061311a6027913960270160316130c5823960310183805190602001908083835b602083106119da5780518252601f1990920191602091820191016119bb565b51815160209384036101000a60001901801990921691161790526c3eae96101134b6b0b3b2911d1160991b919093019081528451600d90910192850191508083835b60208310611a3b5780518252601f199092019160209182019101611a1c565b6001836020036101000a0380198251168184511680821785525050505050509050018061227d60f01b815250600201935050505060405160208183030381529060405261234d565b6040516020018083805190602001908083835b60208310611ab55780518252601f199092019160209182019101611a96565b51815160209384036101000a600019018019909216911617905285519190930192850191508083835b60208310611afd5780518252601f199092019160209182019101611ade565b6001836020036101000a038019825116818451168082178552505050505050905001925050506040516020818303038152906040529350505050919050565b601981565b6000805b600b54811015611b9057826001600160a01b0316600b8281548110611b6657fe5b6000918252602090912001546001600160a01b03161415611b885790506109ec565b600101611b45565b50600092915050565b80517f0000000000000000000000000000000000000000000000000000000000000000023414611bfa5760405162461bcd60e51b815260040180806020018281038252602d815260200180612db8602d913960400191505060405180910390fd5b60005b8151811015611c5957600b828281518110611c1457fe5b60209081029190910181015182546001808201855560009485529290932090920180546001600160a01b0319166001600160a01b039093169290921790915501611bfd565b5060005b600b5460001901811015611d2657600181015b600b54811015611d1d57600b8181548110611c8757fe5b600091825260209091200154600b80546001600160a01b039092169184908110611cad57fe5b6000918252602090912001546001600160a01b03161415611d15576040805162461bcd60e51b815260206004820152601d60248201527f5075707079526166666c653a204475706c696361746520706c61796572000000604482015290519081900360640190fd5b600101611c70565b50600101611c5d565b507fb1c4333d548c772fcf6cf94ff4113aa3d3efcdbedd89953b15a30752b94e3582816040518080602001828103825283818151815260200191508051906020019060200280838360005b83811015611d89578181015183820152602001611d71565b505050509050019250505060405180910390a150565b6001600160a01b03918216600090815260056020908152604080832093909416825291909152205460ff1690565b611dd5611f19565b6001600160a01b0316611de6611548565b6001600160a01b031614611e41576040805162461bcd60e51b815260206004820181905260248201527f4f776e61626c653a2063616c6c6572206973206e6f7420746865206f776e6572604482015290519081900360640190fd5b6001600160a01b038116611e865760405162461bcd60e51b8152600401808060200182810382526026815260200180612d926026913960400191505060405180910390fd5b600a546040516001600160a01b038084169216907f8be0079c531659141344cd1fd0a4f28419497f9722a3daafe3b4186f6b6457e090600090a3600a80546001600160a01b0319166001600160a01b0392909216919091179055565b600b8181548110611ef257600080fd5b6000918252602090912001546001600160a01b0316905081565b6000610e70600283612499565b3390565b600081815260046020526040902080546001600160a01b0319166001600160a01b0384169081179091558190611f5282611363565b6001600160a01b03167f8c5be1e5ebec7d5bd14f71427d1e84f3dd0314c0f7b2291e5b200ac8c7c3b92560405160405180910390a45050565b6000610e70826124a5565b6000611fa182611f0c565b611fdc5760405162461bcd60e51b815260040180806020018281038252602c815260200180612e6f602c913960400191505060405180910390fd5b6000611fe783611363565b9050806001600160a01b0316846001600160a01b031614806120225750836001600160a01b031661201784610a87565b6001600160a01b0316145b8061203257506120328185611d9f565b949350505050565b826001600160a01b031661204d82611363565b6001600160a01b0316146120925760405162461bcd60e51b815260040180806020018281038252602981526020018061301a6029913960400191505060405180910390fd5b6001600160a01b0382166120d75760405162461bcd60e51b8152600401808060200182810382526024815260200180612e116024913960400191505060405180910390fd5b6120e2838383610bbf565b6120ed600082611f1d565b6001600160a01b038316600090815260016020526040902061210f90826124a9565b506001600160a01b038216600090815260016020526040902061213290826124b5565b5061213f600282846124c1565b5080826001600160a01b0316846001600160a01b03167fddf252ad1be2c89b69c2b068fc378daa952ba7f163c4a11628f55a4df523b3ef60405160405180910390a4505050565b804710156121db576040805162461bcd60e51b815260206004820152601d60248201527f416464726573733a20696e73756666696369656e742062616c616e6365000000604482015290519081900360640190fd5b6040516000906001600160a01b0384169083908381818185875af1925050503d8060008114612226576040519150601f19603f3d011682016040523d82523d6000602084013e61222b565b606091505b5050905080610bbf5760405162461bcd60e51b815260040180806020018281038252603a815260200180612e35603a913960400191505060405180910390fd5b6000610e6d83836124d7565b61129f82826040518060200160405280600081525061253b565b60008080806122a0868661258d565b9097909650945050505050565b60006122ba848484612608565b90505b9392505050565b6122cf84848461203a565b6122db848484846126d2565b6117835760405162461bcd60e51b8152600401808060200182810382526032815260200180612d606032913960400191505060405180910390fd5b60408051808201909152601d81527f646174613a6170706c69636174696f6e2f6a736f6e3b6261736536342c000000602082015290565b606081516000141561236e57506040805160208101909152600081526109ec565b6000604051806060016040528060408152602001612f566040913990506000600384516002018161239b57fe5b04600402905060008160200167ffffffffffffffff811180156123bd57600080fd5b506040519080825280601f01601f1916602001820160405280156123e8576020820181803683370190505b509050818152600183018586518101602084015b81831015612454576003830192508251603f8160121c168501518253600182019150603f81600c1c168501518253600182019150603f8160061c168501518253600182019150603f81168501518253506001016123fc565b60038951066001811461246e576002811461247f5761248b565b613d3d60f01b60011983015261248b565b603d60f81b6000198301525b509398975050505050505050565b6000610e6d838361283a565b5490565b6000610e6d8383612852565b6000610e6d8383612918565b60006122ba84846001600160a01b038516612962565b815460009082106125195760405162461bcd60e51b8152600401808060200182810382526022815260200180612cf36022913960400191505060405180910390fd5b82600001828154811061252857fe5b9060005260206000200154905092915050565b61254583836129f9565b61255260008484846126d2565b610bbf5760405162461bcd60e51b8152600401808060200182810382526032815260200180612d606032913960400191505060405180910390fd5b8154600090819083106125d15760405162461bcd60e51b8152600401808060200182810382526022815260200180612f966022913960400191505060405180910390fd5b60008460000184815481106125e257fe5b906000526020600020906002020190508060000154816001015492509250509250929050565b600082815260018401602052604081205482816126a35760405162461bcd60e51b81526004018080602001828103825283818151815260200191508051906020019080838360005b83811015612668578181015183820152602001612650565b50505050905090810190601f1680156126955780820380516001836020036101000a031916815260200191505b509250505060405180910390fd5b508460000160018203815481106126b657fe5b9060005260206000209060020201600101549150509392505050565b60006126e6846001600160a01b0316612b27565b6126f257506001612032565b6000612800630a85bd0160e11b612707611f19565b88878760405160240180856001600160a01b03168152602001846001600160a01b0316815260200183815260200180602001828103825283818151815260200191508051906020019080838360005b8381101561276e578181015183820152602001612756565b50505050905090810190601f16801561279b5780820380516001836020036101000a031916815260200191505b5095505050505050604051602081830303815290604052906001600160e01b0319166020820180516001600160e01b038381831617835250505050604051806060016040528060328152602001612d60603291396001600160a01b0388169190612b2d565b9050600081806020019051602081101561281957600080fd5b50516001600160e01b031916630a85bd0160e11b1492505050949350505050565b60009081526001919091016020526040902054151590565b6000818152600183016020526040812054801561290e578354600019808301919081019060009087908390811061288557fe5b90600052602060002001549050808760000184815481106128a257fe5b6000918252602080832090910192909255828152600189810190925260409020908401905586548790806128d257fe5b60019003818190600052602060002001600090559055866001016000878152602001908152602001600020600090556001945050505050610e70565b6000915050610e70565b6000612924838361283a565b61295a57508154600181810184556000848152602080822090930184905584548482528286019093526040902091909155610e70565b506000610e70565b6000828152600184016020526040812054806129c75750506040805180820182528381526020808201848152865460018181018955600089815284812095516002909302909501918255915190820155865486845281880190925292909120556122bd565b828560000160018303815481106129da57fe5b90600052602060002090600202016001018190555060009150506122bd565b6001600160a01b038216612a54576040805162461bcd60e51b815260206004820181905260248201527f4552433732313a206d696e7420746f20746865207a65726f2061646472657373604482015290519081900360640190fd5b612a5d81611f0c565b15612aaf576040805162461bcd60e51b815260206004820152601c60248201527f4552433732313a20746f6b656e20616c7265616479206d696e74656400000000604482015290519081900360640190fd5b612abb60008383610bbf565b6001600160a01b0382166000908152600160205260409020612add90826124b5565b50612aea600282846124c1565b5060405181906001600160a01b038416906000907fddf252ad1be2c89b69c2b068fc378daa952ba7f163c4a11628f55a4df523b3ef908290a45050565b3b151590565b60606122ba848460008585612b4185612b27565b612b92576040805162461bcd60e51b815260206004820152601d60248201527f416464726573733a2063616c6c20746f206e6f6e2d636f6e7472616374000000604482015290519081900360640190fd5b600080866001600160a01b031685876040518082805190602001908083835b60208310612bd05780518252601f199092019160209182019101612bb1565b6001836020036101000a03801982511681845116808217855250505050505090500191505060006040518083038185875af1925050503d8060008114612c32576040519150601f19603f3d011682016040523d82523d6000602084013e612c37565b606091505b5091509150612c47828286612c52565b979650505050505050565b60608315612c615750816122bd565b825115612c715782518084602001fd5b60405162461bcd60e51b8152602060048201818152845160248401528451859391928392604401919085019080838360008315612668578181015183820152602001612650565b5080546000825590600052602060002090810190612cd69190612cd9565b50565b5b80821115612cee5760008155600101612cda565b509056fe456e756d657261626c655365743a20696e646578206f7574206f6620626f756e64735075707079526166666c653a204661696c656420746f20776974686472617720666565735075707079526166666c653a204f6e6c792074686520706c617965722063616e20726566756e644552433732313a207472616e7366657220746f206e6f6e20455243373231526563656976657220696d706c656d656e7465724f776e61626c653a206e6577206f776e657220697320746865207a65726f20616464726573735075707079526166666c653a204d7573742073656e6420656e6f75676820746f20656e74657220726166666c655075707079526166666c653a2055524920717565727920666f72206e6f6e6578697374656e7420746f6b656e4552433732313a207472616e7366657220746f20746865207a65726f2061646472657373416464726573733a20756e61626c6520746f2073656e642076616c75652c20726563697069656e74206d617920686176652072657665727465644552433732313a206f70657261746f7220717565727920666f72206e6f6e6578697374656e7420746f6b656e4552433732313a20617070726f76652063616c6c6572206973206e6f74206f776e6572206e6f7220617070726f76656420666f7220616c6c4552433732313a2062616c616e636520717565727920666f7220746865207a65726f20616464726573734552433732313a206f776e657220717565727920666f72206e6f6e6578697374656e7420746f6b656e5075707079526166666c653a205468657265206172652063757272656e746c7920706c617965727320616374697665214142434445464748494a4b4c4d4e4f505152535455565758595a6162636465666768696a6b6c6d6e6f707172737475767778797a303132333435363738392b2f456e756d657261626c654d61703a20696e646578206f7574206f6620626f756e64734552433732313a20617070726f76656420717565727920666f72206e6f6e6578697374656e7420746f6b656e5075707079526166666c653a20506c6179657220616c726561647920726566756e6465642c206f72206973206e6f74206163746976654552433732313a207472616e73666572206f6620746f6b656e2074686174206973206e6f74206f776e4552433732313a20617070726f76616c20746f2063757272656e74206f776e65725075707079526166666c653a204661696c656420746f2073656e64207072697a6520706f6f6c20746f2077696e6e65724552433732313a207472616e736665722063616c6c6572206973206e6f74206f776e6572206e6f7220617070726f7665642261747472696275746573223a205b7b2274726169745f74797065223a2022726172697479222c202276616c7565223a205075707079526166666c653a204e656564206174206c65617374203420706c6179657273222c20226465736372697074696f6e223a22416e2061646f7261626c6520707570707921222c20a2646970667358221220a199dec0272191c101bb64f1f8d5b408d05177820ad1db8a2d98de2218a02a7e64736f6c63430007060033697066733a2f2f516d597836477359414b6e4e7a5a3941364e76454b56396e66315661447a4a727144523233593859536b65624c55697066733a2f2f516d5373595278334c7044416231475a516d377a5a314175485a6a6662506b44364a3773397234317875316d6638697066733a2f2f516d55506a41444647454b6d666f686454614e635768703756476b323668356a5844413776335674546e544c6357","opcodes":"PUSH1 0xF DUP1 SLOAD PUSH1 0x1 PUSH1 0xA0 SHL PUSH1 0x1 PUSH1 0xE0 SHL SUB NOT AND SWAP1 SSTORE PUSH2 0x100 PUSH1 0x40 MSTORE PUSH1 0x35 PUSH1 0xA0 DUP2 DUP2 MSTORE SWAP1 PUSH3 0x37B0 PUSH1 0xC0 CODECOPY DUP1 MLOAD PUSH3 0x3D SWAP2 PUSH1 0x13 SWAP2 PUSH1 0x20 SWAP1 SWAP2 ADD SWAP1 PUSH3 0x4A5 JUMP JUMPDEST POP PUSH1 0x40 MLOAD DUP1 PUSH1 0x60 ADD PUSH1 0x40 MSTORE DUP1 PUSH1 0x35 DUP2 MSTORE PUSH1 0x20 ADD PUSH3 0x37E5 PUSH1 0x35 SWAP2 CODECOPY DUP1 MLOAD PUSH3 0x6E SWAP2 PUSH1 0x14 SWAP2 PUSH1 0x20 SWAP1 SWAP2 ADD SWAP1 PUSH3 0x4A5 JUMP JUMPDEST POP PUSH1 0x40 MLOAD DUP1 PUSH1 0x60 ADD PUSH1 0x40 MSTORE DUP1 PUSH1 0x35 DUP2 MSTORE PUSH1 0x20 ADD PUSH3 0x377B PUSH1 0x35 SWAP2 CODECOPY DUP1 MLOAD PUSH3 0x9F SWAP2 PUSH1 0x15 SWAP2 PUSH1 0x20 SWAP1 SWAP2 ADD SWAP1 PUSH3 0x4A5 JUMP JUMPDEST POP CALLVALUE DUP1 ISZERO PUSH3 0xAD JUMPI PUSH1 0x0 DUP1 REVERT JUMPDEST POP PUSH1 0x40 MLOAD PUSH3 0x381A CODESIZE SUB DUP1 PUSH3 0x381A DUP4 CODECOPY DUP2 DUP2 ADD PUSH1 0x40 MSTORE PUSH1 0x60 DUP2 LT ISZERO PUSH3 0xD3 JUMPI PUSH1 0x0 DUP1 REVERT JUMPDEST POP DUP1 MLOAD PUSH1 0x20 DUP1 DUP4 ADD MLOAD PUSH1 0x40 SWAP4 DUP5 ADD MLOAD DUP5 MLOAD DUP1 DUP7 ADD DUP7 MSTORE PUSH1 0xC DUP2 MSTORE PUSH12 0x507570707920526166666C65 PUSH1 0xA0 SHL DUP2 DUP6 ADD MSTORE DUP6 MLOAD DUP1 DUP8 ADD SWAP1 SWAP7 MSTORE PUSH1 0x2 DUP7 MSTORE PUSH2 0x2829 PUSH1 0xF1 SHL SWAP4 DUP7 ADD SWAP4 SWAP1 SWAP4 MSTORE SWAP3 SWAP4 SWAP1 SWAP3 SWAP2 SWAP1 PUSH3 0x132 PUSH4 0x1FFC9A7 PUSH1 0xE0 SHL PUSH3 0x41C JUMP JUMPDEST DUP2 MLOAD PUSH3 0x147 SWAP1 PUSH1 0x6 SWAP1 PUSH1 0x20 DUP6 ADD SWAP1 PUSH3 0x4A5 JUMP JUMPDEST POP DUP1 MLOAD PUSH3 0x15D SWAP1 PUSH1 0x7 SWAP1 PUSH1 0x20 DUP5 ADD SWAP1 PUSH3 0x4A5 JUMP JUMPDEST POP PUSH3 0x170 PUSH4 0x80AC58CD PUSH1 0xE0 SHL PUSH3 0x41C JUMP JUMPDEST PUSH3 0x182 PUSH4 0x5B5E139F PUSH1 0xE0 SHL PUSH3 0x41C JUMP JUMPDEST PUSH3 0x194 PUSH4 0x780E9D63 PUSH1 0xE0 SHL PUSH3 0x41C JUMP JUMPDEST POP PUSH1 0x0 SWAP1 POP PUSH3 0x1A3 PUSH3 0x4A1 JUMP JUMPDEST PUSH1 0xA DUP1 SLOAD PUSH1 0x1 PUSH1 0x1 PUSH1 0xA0 SHL SUB NOT AND PUSH1 0x1 PUSH1 0x1 PUSH1 0xA0 SHL SUB DUP4 AND SWAP1 DUP2 OR SWAP1 SWAP2 SSTORE PUSH1 0x40 MLOAD SWAP2 SWAP3 POP SWAP1 PUSH1 0x0 SWAP1 PUSH32 0x8BE0079C531659141344CD1FD0A4F28419497F9722A3DAAFE3B4186F6B6457E0 SWAP1 DUP3 SWAP1 LOG3 POP PUSH1 0x80 DUP4 SWAP1 MSTORE PUSH1 0xF DUP1 SLOAD PUSH1 0x1 PUSH1 0x1 PUSH1 0xA0 SHL SUB NOT AND PUSH1 0x1 PUSH1 0x1 PUSH1 0xA0 SHL SUB DUP5 AND OR SWAP1 SSTORE PUSH1 0xC DUP2 SWAP1 SSTORE TIMESTAMP PUSH1 0xD SSTORE PUSH1 0x46 PUSH1 0x0 MSTORE PUSH1 0x11 PUSH1 0x20 MSTORE PUSH1 0x13 DUP1 SLOAD PUSH3 0x268 SWAP2 PUSH32 0x5B7F6FA27CBDD877C784E5CD6F1E7B2E2ECFCCC0FD6EC81E33B8ACC96C2C12C9 SWAP2 PUSH1 0x2 PUSH2 0x100 PUSH1 0x1 DUP4 AND ISZERO MUL PUSH1 0x0 NOT ADD SWAP1 SWAP2 AND DIV PUSH3 0x53A JUMP JUMPDEST POP PUSH1 0x19 PUSH1 0x0 MSTORE PUSH1 0x11 PUSH1 0x20 MSTORE PUSH1 0x14 DUP1 SLOAD PUSH3 0x2B7 SWAP2 PUSH32 0xBD257726630D6FA81014C2A632BD8BA73882FFF9DA9629E2E56F50F9E7161FCF SWAP2 PUSH1 0x2 PUSH1 0x0 NOT PUSH2 0x100 PUSH1 0x1 DUP5 AND ISZERO MUL ADD SWAP1 SWAP2 AND DIV PUSH3 0x53A JUMP JUMPDEST POP PUSH1 0x5 PUSH1 0x0 MSTORE PUSH1 0x11 PUSH1 0x20 MSTORE PUSH1 0x15 DUP1 SLOAD PUSH3 0x306 SWAP2 PUSH32 0xC550213CEE30AFD5E67CCBA7BE3D381BBC169034AE08EB3EC9168CACA9FE55E7 SWAP2 PUSH1 0x2 PUSH1 0x0 NOT PUSH2 0x100 PUSH1 0x1 DUP5 AND ISZERO MUL ADD SWAP1 SWAP2 AND DIV PUSH3 0x53A JUMP JUMPDEST POP PUSH1 0x40 DUP1 MLOAD DUP1 DUP3 ADD SWAP1 SWAP2 MSTORE PUSH1 0x6 DUP2 MSTORE PUSH6 0x31B7B6B6B7B7 PUSH1 0xD1 SHL PUSH1 0x20 DUP1 DUP4 ADD SWAP2 DUP3 MSTORE PUSH1 0x46 PUSH1 0x0 MSTORE PUSH1 0x12 SWAP1 MSTORE SWAP1 MLOAD PUSH3 0x35F SWAP2 PUSH32 0x35F893B72CE0D9E4576E154D39495C618A5A26DD034E3E870883107AD973755F SWAP2 PUSH3 0x4A5 JUMP JUMPDEST POP PUSH1 0x40 DUP1 MLOAD DUP1 DUP3 ADD SWAP1 SWAP2 MSTORE PUSH1 0x4 DUP2 MSTORE PUSH4 0x72617265 PUSH1 0xE0 SHL PUSH1 0x20 DUP1 DUP4 ADD SWAP2 DUP3 MSTORE PUSH1 0x19 PUSH1 0x0 MSTORE PUSH1 0x12 SWAP1 MSTORE SWAP1 MLOAD PUSH3 0x3B6 SWAP2 PUSH32 0x799A11CCCB7C7D688C679C3A3D7F03E6AF337F5BDA872B434EE1B298E35F586B SWAP2 PUSH3 0x4A5 JUMP JUMPDEST POP PUSH1 0x40 DUP1 MLOAD DUP1 DUP3 ADD SWAP1 SWAP2 MSTORE PUSH1 0x9 DUP2 MSTORE PUSH9 0x6C6567656E64617279 PUSH1 0xB8 SHL PUSH1 0x20 DUP1 DUP4 ADD SWAP2 DUP3 MSTORE PUSH1 0x5 PUSH1 0x0 MSTORE PUSH1 0x12 SWAP1 MSTORE SWAP1 MLOAD PUSH3 0x412 SWAP2 PUSH32 0x45429B9195D4EC5C0CF6C69E9C21A4CA0EA773B702C2DE5735F85D2631F26746 SWAP2 PUSH3 0x4A5 JUMP JUMPDEST POP POP POP POP PUSH3 0x5DB JUMP JUMPDEST PUSH1 0x1 PUSH1 0x1 PUSH1 0xE0 SHL SUB NOT DUP1 DUP3 AND EQ ISZERO PUSH3 0x47C JUMPI PUSH1 0x40 DUP1 MLOAD PUSH3 0x461BCD PUSH1 0xE5 SHL DUP2 MSTORE PUSH1 0x20 PUSH1 0x4 DUP3 ADD MSTORE PUSH1 0x1C PUSH1 0x24 DUP3 ADD MSTORE PUSH32 0x4552433136353A20696E76616C696420696E7465726661636520696400000000 PUSH1 0x44 DUP3 ADD MSTORE SWAP1 MLOAD SWAP1 DUP2 SWAP1 SUB PUSH1 0x64 ADD SWAP1 REVERT JUMPDEST PUSH1 0x1 PUSH1 0x1 PUSH1 0xE0 SHL SUB NOT AND PUSH1 0x0 SWAP1 DUP2 MSTORE PUSH1 0x20 DUP2 SWAP1 MSTORE PUSH1 0x40 SWAP1 KECCAK256 DUP1 SLOAD PUSH1 0xFF NOT AND PUSH1 0x1 OR SWAP1 SSTORE JUMP JUMPDEST CALLER SWAP1 JUMP JUMPDEST DUP3 DUP1 SLOAD PUSH1 0x1 DUP2 PUSH1 0x1 AND ISZERO PUSH2 0x100 MUL SUB AND PUSH1 0x2 SWAP1 DIV SWAP1 PUSH1 0x0 MSTORE PUSH1 0x20 PUSH1 0x0 KECCAK256 SWAP1 PUSH1 0x1F ADD PUSH1 0x20 SWAP1 DIV DUP2 ADD SWAP3 DUP3 PUSH3 0x4DD JUMPI PUSH1 0x0 DUP6 SSTORE PUSH3 0x528 JUMP JUMPDEST DUP3 PUSH1 0x1F LT PUSH3 0x4F8 JUMPI DUP1 MLOAD PUSH1 0xFF NOT AND DUP4 DUP1 ADD OR DUP6 SSTORE PUSH3 0x528 JUMP JUMPDEST DUP3 DUP1 ADD PUSH1 0x1 ADD DUP6 SSTORE DUP3 ISZERO PUSH3 0x528 JUMPI SWAP2 DUP3 ADD JUMPDEST DUP3 DUP2 GT ISZERO PUSH3 0x528 JUMPI DUP3 MLOAD DUP3 SSTORE SWAP2 PUSH1 0x20 ADD SWAP2 SWAP1 PUSH1 0x1 ADD SWAP1 PUSH3 0x50B JUMP JUMPDEST POP PUSH3 0x536 SWAP3 SWAP2 POP PUSH3 0x5C4 JUMP JUMPDEST POP SWAP1 JUMP JUMPDEST DUP3 DUP1 SLOAD PUSH1 0x1 DUP2 PUSH1 0x1 AND ISZERO PUSH2 0x100 MUL SUB AND PUSH1 0x2 SWAP1 DIV SWAP1 PUSH1 0x0 MSTORE PUSH1 0x20 PUSH1 0x0 KECCAK256 SWAP1 PUSH1 0x1F ADD PUSH1 0x20 SWAP1 DIV DUP2 ADD SWAP3 DUP3 PUSH3 0x572 JUMPI PUSH1 0x0 DUP6 SSTORE PUSH3 0x528 JUMP JUMPDEST DUP3 PUSH1 0x1F LT PUSH3 0x585 JUMPI DUP1 SLOAD DUP6 SSTORE PUSH3 0x528 JUMP JUMPDEST DUP3 DUP1 ADD PUSH1 0x1 ADD DUP6 SSTORE DUP3 ISZERO PUSH3 0x528 JUMPI PUSH1 0x0 MSTORE PUSH1 0x20 PUSH1 0x0 KECCAK256 SWAP2 PUSH1 0x1F ADD PUSH1 0x20 SWAP1 DIV DUP3 ADD JUMPDEST DUP3 DUP2 GT ISZERO PUSH3 0x528 JUMPI DUP3 SLOAD DUP3 SSTORE SWAP2 PUSH1 0x1 ADD SWAP2 SWAP1 PUSH1 0x1 ADD SWAP1 PUSH3 0x5A7 JUMP JUMPDEST JUMPDEST DUP1 DUP3 GT ISZERO PUSH3 0x536 JUMPI PUSH1 0x0 DUP2 SSTORE PUSH1 0x1 ADD PUSH3 0x5C5 JUMP JUMPDEST PUSH1 0x80 MLOAD PUSH2 0x3176 PUSH3 0x605 PUSH1 0x0 CODECOPY DUP1 PUSH2 0xCF2 MSTORE DUP1 PUSH2 0xF88 MSTORE DUP1 PUSH2 0x138D MSTORE DUP1 PUSH2 0x1B9D MSTORE POP PUSH2 0x3176 PUSH1 0x0 RETURN INVALID PUSH1 0x80 PUSH1 0x40 MSTORE PUSH1 0x4 CALLDATASIZE LT PUSH2 0x230 JUMPI PUSH1 0x0 CALLDATALOAD PUSH1 0xE0 SHR DUP1 PUSH4 0x649677E1 GT PUSH2 0x12E JUMPI DUP1 PUSH4 0xB88D4FDE GT PUSH2 0xAB JUMPI DUP1 PUSH4 0xDB2CEA75 GT PUSH2 0x6F JUMPI DUP1 PUSH4 0xDB2CEA75 EQ PUSH2 0x860 JUMPI DUP1 PUSH4 0xE1A0F7E7 EQ PUSH2 0x893 JUMPI DUP1 PUSH4 0xE985E9C5 EQ PUSH2 0x936 JUMPI DUP1 PUSH4 0xF2FDE38B EQ PUSH2 0x971 JUMPI DUP1 PUSH4 0xF71D96CB EQ PUSH2 0x9A4 JUMPI PUSH2 0x230 JUMP JUMPDEST DUP1 PUSH4 0xB88D4FDE EQ PUSH2 0x724 JUMPI DUP1 PUSH4 0xBD71A521 EQ PUSH2 0x7F7 JUMPI DUP1 PUSH4 0xBD7C40C7 EQ PUSH2 0x80C JUMPI DUP1 PUSH4 0xC87B56DD EQ PUSH2 0x821 JUMPI DUP1 PUSH4 0xDB2C0B91 EQ PUSH2 0x84B JUMPI PUSH2 0x230 JUMP JUMPDEST DUP1 PUSH4 0x8DA5CB5B GT PUSH2 0xF2 JUMPI DUP1 PUSH4 0x8DA5CB5B EQ PUSH2 0x680 JUMPI DUP1 PUSH4 0x95D89B41 EQ PUSH2 0x695 JUMPI DUP1 PUSH4 0x970C76E1 EQ PUSH2 0x6AA JUMPI DUP1 PUSH4 0xA22CB465 EQ PUSH2 0x6D4 JUMPI DUP1 PUSH4 0xB2F8846B EQ PUSH2 0x70F JUMPI PUSH2 0x230 JUMP JUMPDEST DUP1 PUSH4 0x649677E1 EQ PUSH2 0x5E4 JUMPI DUP1 PUSH4 0x6BE88980 EQ PUSH2 0x5F9 JUMPI DUP1 PUSH4 0x6C0360EB EQ PUSH2 0x623 JUMPI DUP1 PUSH4 0x70A08231 EQ PUSH2 0x638 JUMPI DUP1 PUSH4 0x715018A6 EQ PUSH2 0x66B JUMPI PUSH2 0x230 JUMP JUMPDEST DUP1 PUSH4 0x2F745C59 GT PUSH2 0x1BC JUMPI DUP1 PUSH4 0x476343EE GT PUSH2 0x180 JUMPI DUP1 PUSH4 0x476343EE EQ PUSH2 0x53C JUMPI DUP1 PUSH4 0x4A038BEB EQ PUSH2 0x551 JUMPI DUP1 PUSH4 0x4F6CCCE7 EQ PUSH2 0x57B JUMPI DUP1 PUSH4 0x5C6059EE EQ PUSH2 0x5A5 JUMPI DUP1 PUSH4 0x6352211E EQ PUSH2 0x5BA JUMPI PUSH2 0x230 JUMP JUMPDEST DUP1 PUSH4 0x2F745C59 EQ PUSH2 0x481 JUMPI DUP1 PUSH4 0x33A99E04 EQ PUSH2 0x4BA JUMPI DUP1 PUSH4 0x3BE539EE EQ PUSH2 0x4CF JUMPI DUP1 PUSH4 0x41275358 EQ PUSH2 0x4E4 JUMPI DUP1 PUSH4 0x42842E0E EQ PUSH2 0x4F9 JUMPI PUSH2 0x230 JUMP JUMPDEST DUP1 PUSH4 0x13114A9D GT PUSH2 0x203 JUMPI DUP1 PUSH4 0x13114A9D EQ PUSH2 0x388 JUMPI DUP1 PUSH4 0x18160DDD EQ PUSH2 0x3BA JUMPI DUP1 PUSH4 0x23B872DD EQ PUSH2 0x3E1 JUMPI DUP1 PUSH4 0x278ECDE1 EQ PUSH2 0x424 JUMPI DUP1 PUSH4 0x285E1406 EQ PUSH2 0x44E JUMPI PUSH2 0x230 JUMP JUMPDEST DUP1 PUSH4 0x1FFC9A7 EQ PUSH2 0x235 JUMPI DUP1 PUSH4 0x6FDDE03 EQ PUSH2 0x27D JUMPI DUP1 PUSH4 0x81812FC EQ PUSH2 0x307 JUMPI DUP1 PUSH4 0x95EA7B3 EQ PUSH2 0x34D JUMPI JUMPDEST PUSH1 0x0 DUP1 REVERT JUMPDEST CALLVALUE DUP1 ISZERO PUSH2 0x241 JUMPI PUSH1 0x0 DUP1 REVERT JUMPDEST POP PUSH2 0x269 PUSH1 0x4 DUP1 CALLDATASIZE SUB PUSH1 0x20 DUP2 LT ISZERO PUSH2 0x258 JUMPI PUSH1 0x0 DUP1 REVERT JUMPDEST POP CALLDATALOAD PUSH1 0x1 PUSH1 0x1 PUSH1 0xE0 SHL SUB NOT AND PUSH2 0x9CE JUMP JUMPDEST PUSH1 0x40 DUP1 MLOAD SWAP2 ISZERO ISZERO DUP3 MSTORE MLOAD SWAP1 DUP2 SWAP1 SUB PUSH1 0x20 ADD SWAP1 RETURN JUMPDEST CALLVALUE DUP1 ISZERO PUSH2 0x289 JUMPI PUSH1 0x0 DUP1 REVERT JUMPDEST POP PUSH2 0x292 PUSH2 0x9F1 JUMP JUMPDEST PUSH1 0x40 DUP1 MLOAD PUSH1 0x20 DUP1 DUP3 MSTORE DUP4 MLOAD DUP2 DUP4 ADD MSTORE DUP4 MLOAD SWAP2 SWAP3 DUP4 SWAP3 SWAP1 DUP4 ADD SWAP2 DUP6 ADD SWAP1 DUP1 DUP4 DUP4 PUSH1 0x0 JUMPDEST DUP4 DUP2 LT ISZERO PUSH2 0x2CC JUMPI DUP2 DUP2 ADD MLOAD DUP4 DUP3 ADD MSTORE PUSH1 0x20 ADD PUSH2 0x2B4 JUMP JUMPDEST POP POP POP POP SWAP1 POP SWAP1 DUP2 ADD SWAP1 PUSH1 0x1F AND DUP1 ISZERO PUSH2 0x2F9 JUMPI DUP1 DUP3 SUB DUP1 MLOAD PUSH1 0x1 DUP4 PUSH1 0x20 SUB PUSH2 0x100 EXP SUB NOT AND DUP2 MSTORE PUSH1 0x20 ADD SWAP2 POP JUMPDEST POP SWAP3 POP POP POP PUSH1 0x40 MLOAD DUP1 SWAP2 SUB SWAP1 RETURN JUMPDEST CALLVALUE DUP1 ISZERO PUSH2 0x313 JUMPI PUSH1 0x0 DUP1 REVERT JUMPDEST POP PUSH2 0x331 PUSH1 0x4 DUP1 CALLDATASIZE SUB PUSH1 0x20 DUP2 LT ISZERO PUSH2 0x32A JUMPI PUSH1 0x0 DUP1 REVERT JUMPDEST POP CALLDATALOAD PUSH2 0xA87 JUMP JUMPDEST PUSH1 0x40 DUP1 MLOAD PUSH1 0x1 PUSH1 0x1 PUSH1 0xA0 SHL SUB SWAP1 SWAP3 AND DUP3 MSTORE MLOAD SWAP1 DUP2 SWAP1 SUB PUSH1 0x20 ADD SWAP1 RETURN JUMPDEST CALLVALUE DUP1 ISZERO PUSH2 0x359 JUMPI PUSH1 0x0 DUP1 REVERT JUMPDEST POP PUSH2 0x386 PUSH1 0x4 DUP1 CALLDATASIZE SUB PUSH1 0x40 DUP2 LT ISZERO PUSH2 0x370 JUMPI PUSH1 0x0 DUP1 REVERT JUMPDEST POP PUSH1 0x1 PUSH1 0x1 PUSH1 0xA0 SHL SUB DUP2 CALLDATALOAD AND SWAP1 PUSH1 0x20 ADD CALLDATALOAD PUSH2 0xAE9 JUMP JUMPDEST STOP JUMPDEST CALLVALUE DUP1 ISZERO PUSH2 0x394 JUMPI PUSH1 0x0 DUP1 REVERT JUMPDEST POP PUSH2 0x39D PUSH2 0xBC4 JUMP JUMPDEST PUSH1 0x40 DUP1 MLOAD PUSH8 0xFFFFFFFFFFFFFFFF SWAP1 SWAP3 AND DUP3 MSTORE MLOAD SWAP1 DUP2 SWAP1 SUB PUSH1 0x20 ADD SWAP1 RETURN JUMPDEST CALLVALUE DUP1 ISZERO PUSH2 0x3C6 JUMPI PUSH1 0x0 DUP1 REVERT JUMPDEST POP PUSH2 0x3CF PUSH2 0xBDB JUMP JUMPDEST PUSH1 0x40 DUP1 MLOAD SWAP2 DUP3 MSTORE MLOAD SWAP1 DUP2 SWAP1 SUB PUSH1 0x20 ADD SWAP1 RETURN JUMPDEST CALLVALUE DUP1 ISZERO PUSH2 0x3ED JUMPI PUSH1 0x0 DUP1 REVERT JUMPDEST POP PUSH2 0x386 PUSH1 0x4 DUP1 CALLDATASIZE SUB PUSH1 0x60 DUP2 LT ISZERO PUSH2 0x404 JUMPI PUSH1 0x0 DUP1 REVERT JUMPDEST POP PUSH1 0x1 PUSH1 0x1 PUSH1 0xA0 SHL SUB DUP2 CALLDATALOAD DUP2 AND SWAP2 PUSH1 0x20 DUP2 ADD CALLDATALOAD SWAP1 SWAP2 AND SWAP1 PUSH1 0x40 ADD CALLDATALOAD PUSH2 0xBEC JUMP JUMPDEST CALLVALUE DUP1 ISZERO PUSH2 0x430 JUMPI PUSH1 0x0 DUP1 REVERT JUMPDEST POP PUSH2 0x386 PUSH1 0x4 DUP1 CALLDATASIZE SUB PUSH1 0x20 DUP2 LT ISZERO PUSH2 0x447 JUMPI PUSH1 0x0 DUP1 REVERT JUMPDEST POP CALLDATALOAD PUSH2 0xC43 JUMP JUMPDEST CALLVALUE DUP1 ISZERO PUSH2 0x45A JUMPI PUSH1 0x0 DUP1 REVERT JUMPDEST POP PUSH2 0x386 PUSH1 0x4 DUP1 CALLDATASIZE SUB PUSH1 0x20 DUP2 LT ISZERO PUSH2 0x471 JUMPI PUSH1 0x0 DUP1 REVERT JUMPDEST POP CALLDATALOAD PUSH1 0x1 PUSH1 0x1 PUSH1 0xA0 SHL SUB AND PUSH2 0xD83 JUMP JUMPDEST CALLVALUE DUP1 ISZERO PUSH2 0x48D JUMPI PUSH1 0x0 DUP1 REVERT JUMPDEST POP PUSH2 0x3CF PUSH1 0x4 DUP1 CALLDATASIZE SUB PUSH1 0x40 DUP2 LT ISZERO PUSH2 0x4A4 JUMPI PUSH1 0x0 DUP1 REVERT JUMPDEST POP PUSH1 0x1 PUSH1 0x1 PUSH1 0xA0 SHL SUB DUP2 CALLDATALOAD AND SWAP1 PUSH1 0x20 ADD CALLDATALOAD PUSH2 0xE4B JUMP JUMPDEST CALLVALUE DUP1 ISZERO PUSH2 0x4C6 JUMPI PUSH1 0x0 DUP1 REVERT JUMPDEST POP PUSH2 0x386 PUSH2 0xE76 JUMP JUMPDEST CALLVALUE DUP1 ISZERO PUSH2 0x4DB JUMPI PUSH1 0x0 DUP1 REVERT JUMPDEST POP PUSH2 0x3CF PUSH2 0x1165 JUMP JUMPDEST CALLVALUE DUP1 ISZERO PUSH2 0x4F0 JUMPI PUSH1 0x0 DUP1 REVERT JUMPDEST POP PUSH2 0x331 PUSH2 0x116B JUMP JUMPDEST CALLVALUE DUP1 ISZERO PUSH2 0x505 JUMPI PUSH1 0x0 DUP1 REVERT JUMPDEST POP PUSH2 0x386 PUSH1 0x4 DUP1 CALLDATASIZE SUB PUSH1 0x60 DUP2 LT ISZERO PUSH2 0x51C JUMPI PUSH1 0x0 DUP1 REVERT JUMPDEST POP PUSH1 0x1 PUSH1 0x1 PUSH1 0xA0 SHL SUB DUP2 CALLDATALOAD DUP2 AND SWAP2 PUSH1 0x20 DUP2 ADD CALLDATALOAD SWAP1 SWAP2 AND SWAP1 PUSH1 0x40 ADD CALLDATALOAD PUSH2 0x117A JUMP JUMPDEST CALLVALUE DUP1 ISZERO PUSH2 0x548 JUMPI PUSH1 0x0 DUP1 REVERT JUMPDEST POP PUSH2 0x386 PUSH2 0x1195 JUMP JUMPDEST CALLVALUE DUP1 ISZERO PUSH2 0x55D JUMPI PUSH1 0x0 DUP1 REVERT JUMPDEST POP PUSH2 0x292 PUSH1 0x4 DUP1 CALLDATASIZE SUB PUSH1 0x20 DUP2 LT ISZERO PUSH2 0x574 JUMPI PUSH1 0x0 DUP1 REVERT JUMPDEST POP CALLDATALOAD PUSH2 0x12A3 JUMP JUMPDEST CALLVALUE DUP1 ISZERO PUSH2 0x587 JUMPI PUSH1 0x0 DUP1 REVERT JUMPDEST POP PUSH2 0x3CF PUSH1 0x4 DUP1 CALLDATASIZE SUB PUSH1 0x20 DUP2 LT ISZERO PUSH2 0x59E JUMPI PUSH1 0x0 DUP1 REVERT JUMPDEST POP CALLDATALOAD PUSH2 0x133E JUMP JUMPDEST CALLVALUE DUP1 ISZERO PUSH2 0x5B1 JUMPI PUSH1 0x0 DUP1 REVERT JUMPDEST POP PUSH2 0x331 PUSH2 0x1354 JUMP JUMPDEST CALLVALUE DUP1 ISZERO PUSH2 0x5C6 JUMPI PUSH1 0x0 DUP1 REVERT JUMPDEST POP PUSH2 0x331 PUSH1 0x4 DUP1 CALLDATASIZE SUB PUSH1 0x20 DUP2 LT ISZERO PUSH2 0x5DD JUMPI PUSH1 0x0 DUP1 REVERT JUMPDEST POP CALLDATALOAD PUSH2 0x1363 JUMP JUMPDEST CALLVALUE DUP1 ISZERO PUSH2 0x5F0 JUMPI PUSH1 0x0 DUP1 REVERT JUMPDEST POP PUSH2 0x3CF PUSH2 0x138B JUMP JUMPDEST CALLVALUE DUP1 ISZERO PUSH2 0x605 JUMPI PUSH1 0x0 DUP1 REVERT JUMPDEST POP PUSH2 0x3CF PUSH1 0x4 DUP1 CALLDATASIZE SUB PUSH1 0x20 DUP2 LT ISZERO PUSH2 0x61C JUMPI PUSH1 0x0 DUP1 REVERT JUMPDEST POP CALLDATALOAD PUSH2 0x13AF JUMP JUMPDEST CALLVALUE DUP1 ISZERO PUSH2 0x62F JUMPI PUSH1 0x0 DUP1 REVERT JUMPDEST POP PUSH2 0x292 PUSH2 0x13C1 JUMP JUMPDEST CALLVALUE DUP1 ISZERO PUSH2 0x644 JUMPI PUSH1 0x0 DUP1 REVERT JUMPDEST POP PUSH2 0x3CF PUSH1 0x4 DUP1 CALLDATASIZE SUB PUSH1 0x20 DUP2 LT ISZERO PUSH2 0x65B JUMPI PUSH1 0x0 DUP1 REVERT JUMPDEST POP CALLDATALOAD PUSH1 0x1 PUSH1 0x1 PUSH1 0xA0 SHL SUB AND PUSH2 0x1422 JUMP JUMPDEST CALLVALUE DUP1 ISZERO PUSH2 0x677 JUMPI PUSH1 0x0 DUP1 REVERT JUMPDEST POP PUSH2 0x386 PUSH2 0x148A JUMP JUMPDEST CALLVALUE DUP1 ISZERO PUSH2 0x68C JUMPI PUSH1 0x0 DUP1 REVERT JUMPDEST POP PUSH2 0x331 PUSH2 0x1548 JUMP JUMPDEST CALLVALUE DUP1 ISZERO PUSH2 0x6A1 JUMPI PUSH1 0x0 DUP1 REVERT JUMPDEST POP PUSH2 0x292 PUSH2 0x1557 JUMP JUMPDEST CALLVALUE DUP1 ISZERO PUSH2 0x6B6 JUMPI PUSH1 0x0 DUP1 REVERT JUMPDEST POP PUSH2 0x292 PUSH1 0x4 DUP1 CALLDATASIZE SUB PUSH1 0x20 DUP2 LT ISZERO PUSH2 0x6CD JUMPI PUSH1 0x0 DUP1 REVERT JUMPDEST POP CALLDATALOAD PUSH2 0x15B8 JUMP JUMPDEST CALLVALUE DUP1 ISZERO PUSH2 0x6E0 JUMPI PUSH1 0x0 DUP1 REVERT JUMPDEST POP PUSH2 0x386 PUSH1 0x4 DUP1 CALLDATASIZE SUB PUSH1 0x40 DUP2 LT ISZERO PUSH2 0x6F7 JUMPI PUSH1 0x0 DUP1 REVERT JUMPDEST POP PUSH1 0x1 PUSH1 0x1 PUSH1 0xA0 SHL SUB DUP2 CALLDATALOAD AND SWAP1 PUSH1 0x20 ADD CALLDATALOAD ISZERO ISZERO PUSH2 0x1620 JUMP JUMPDEST CALLVALUE DUP1 ISZERO PUSH2 0x71B JUMPI PUSH1 0x0 DUP1 REVERT JUMPDEST POP PUSH2 0x3CF PUSH2 0x1725 JUMP JUMPDEST CALLVALUE DUP1 ISZERO PUSH2 0x730 JUMPI PUSH1 0x0 DUP1 REVERT JUMPDEST POP PUSH2 0x386 PUSH1 0x4 DUP1 CALLDATASIZE SUB PUSH1 0x80 DUP2 LT ISZERO PUSH2 0x747 JUMPI PUSH1 0x0 DUP1 REVERT JUMPDEST PUSH1 0x1 PUSH1 0x1 PUSH1 0xA0 SHL SUB DUP3 CALLDATALOAD DUP2 AND SWAP3 PUSH1 0x20 DUP2 ADD CALLDATALOAD SWAP1 SWAP2 AND SWAP2 PUSH1 0x40 DUP3 ADD CALLDATALOAD SWAP2 SWAP1 DUP2 ADD SWAP1 PUSH1 0x80 DUP2 ADD PUSH1 0x60 DUP3 ADD CALLDATALOAD PUSH5 0x100000000 DUP2 GT ISZERO PUSH2 0x782 JUMPI PUSH1 0x0 DUP1 REVERT JUMPDEST DUP3 ADD DUP4 PUSH1 0x20 DUP3 ADD GT ISZERO PUSH2 0x794 JUMPI PUSH1 0x0 DUP1 REVERT JUMPDEST DUP1 CALLDATALOAD SWAP1 PUSH1 0x20 ADD SWAP2 DUP5 PUSH1 0x1 DUP4 MUL DUP5 ADD GT PUSH5 0x100000000 DUP4 GT OR ISZERO PUSH2 0x7B6 JUMPI PUSH1 0x0 DUP1 REVERT JUMPDEST SWAP2 SWAP1 DUP1 DUP1 PUSH1 0x1F ADD PUSH1 0x20 DUP1 SWAP2 DIV MUL PUSH1 0x20 ADD PUSH1 0x40 MLOAD SWAP1 DUP2 ADD PUSH1 0x40 MSTORE DUP1 SWAP4 SWAP3 SWAP2 SWAP1 DUP2 DUP2 MSTORE PUSH1 0x20 ADD DUP4 DUP4 DUP1 DUP3 DUP5 CALLDATACOPY PUSH1 0x0 SWAP3 ADD SWAP2 SWAP1 SWAP2 MSTORE POP SWAP3 SWAP6 POP PUSH2 0x172B SWAP5 POP POP POP POP POP JUMP JUMPDEST CALLVALUE DUP1 ISZERO PUSH2 0x803 JUMPI PUSH1 0x0 DUP1 REVERT JUMPDEST POP PUSH2 0x3CF PUSH2 0x1789 JUMP JUMPDEST CALLVALUE DUP1 ISZERO PUSH2 0x818 JUMPI PUSH1 0x0 DUP1 REVERT JUMPDEST POP PUSH2 0x3CF PUSH2 0x178E JUMP JUMPDEST CALLVALUE DUP1 ISZERO PUSH2 0x82D JUMPI PUSH1 0x0 DUP1 REVERT JUMPDEST POP PUSH2 0x292 PUSH1 0x4 DUP1 CALLDATASIZE SUB PUSH1 0x20 DUP2 LT ISZERO PUSH2 0x844 JUMPI PUSH1 0x0 DUP1 REVERT JUMPDEST POP CALLDATALOAD PUSH2 0x1793 JUMP JUMPDEST CALLVALUE DUP1 ISZERO PUSH2 0x857 JUMPI PUSH1 0x0 DUP1 REVERT JUMPDEST POP PUSH2 0x3CF PUSH2 0x1B3C JUMP JUMPDEST CALLVALUE DUP1 ISZERO PUSH2 0x86C JUMPI PUSH1 0x0 DUP1 REVERT JUMPDEST POP PUSH2 0x3CF PUSH1 0x4 DUP1 CALLDATASIZE SUB PUSH1 0x20 DUP2 LT ISZERO PUSH2 0x883 JUMPI PUSH1 0x0 DUP1 REVERT JUMPDEST POP CALLDATALOAD PUSH1 0x1 PUSH1 0x1 PUSH1 0xA0 SHL SUB AND PUSH2 0x1B41 JUMP JUMPDEST PUSH2 0x386 PUSH1 0x4 DUP1 CALLDATASIZE SUB PUSH1 0x20 DUP2 LT ISZERO PUSH2 0x8A9 JUMPI PUSH1 0x0 DUP1 REVERT JUMPDEST DUP2 ADD SWAP1 PUSH1 0x20 DUP2 ADD DUP2 CALLDATALOAD PUSH5 0x100000000 DUP2 GT ISZERO PUSH2 0x8C4 JUMPI PUSH1 0x0 DUP1 REVERT JUMPDEST DUP3 ADD DUP4 PUSH1 0x20 DUP3 ADD GT ISZERO PUSH2 0x8D6 JUMPI PUSH1 0x0 DUP1 REVERT JUMPDEST DUP1 CALLDATALOAD SWAP1 PUSH1 0x20 ADD SWAP2 DUP5 PUSH1 0x20 DUP4 MUL DUP5 ADD GT PUSH5 0x100000000 DUP4 GT OR ISZERO PUSH2 0x8F8 JUMPI PUSH1 0x0 DUP1 REVERT JUMPDEST SWAP2 SWAP1 DUP1 DUP1 PUSH1 0x20 MUL PUSH1 0x20 ADD PUSH1 0x40 MLOAD SWAP1 DUP2 ADD PUSH1 0x40 MSTORE DUP1 SWAP4 SWAP3 SWAP2 SWAP1 DUP2 DUP2 MSTORE PUSH1 0x20 ADD DUP4 DUP4 PUSH1 0x20 MUL DUP1 DUP3 DUP5 CALLDATACOPY PUSH1 0x0 SWAP3 ADD SWAP2 SWAP1 SWAP2 MSTORE POP SWAP3 SWAP6 POP PUSH2 0x1B99 SWAP5 POP POP POP POP POP JUMP JUMPDEST CALLVALUE DUP1 ISZERO PUSH2 0x942 JUMPI PUSH1 0x0 DUP1 REVERT JUMPDEST POP PUSH2 0x269 PUSH1 0x4 DUP1 CALLDATASIZE SUB PUSH1 0x40 DUP2 LT ISZERO PUSH2 0x959 JUMPI PUSH1 0x0 DUP1 REVERT JUMPDEST POP PUSH1 0x1 PUSH1 0x1 PUSH1 0xA0 SHL SUB DUP2 CALLDATALOAD DUP2 AND SWAP2 PUSH1 0x20 ADD CALLDATALOAD AND PUSH2 0x1D9F JUMP JUMPDEST CALLVALUE DUP1 ISZERO PUSH2 0x97D JUMPI PUSH1 0x0 DUP1 REVERT JUMPDEST POP PUSH2 0x386 PUSH1 0x4 DUP1 CALLDATASIZE SUB PUSH1 0x20 DUP2 LT ISZERO PUSH2 0x994 JUMPI PUSH1 0x0 DUP1 REVERT JUMPDEST POP CALLDATALOAD PUSH1 0x1 PUSH1 0x1 PUSH1 0xA0 SHL SUB AND PUSH2 0x1DCD JUMP JUMPDEST CALLVALUE DUP1 ISZERO PUSH2 0x9B0 JUMPI PUSH1 0x0 DUP1 REVERT JUMPDEST POP PUSH2 0x331 PUSH1 0x4 DUP1 CALLDATASIZE SUB PUSH1 0x20 DUP2 LT ISZERO PUSH2 0x9C7 JUMPI PUSH1 0x0 DUP1 REVERT JUMPDEST POP CALLDATALOAD PUSH2 0x1EE2 JUMP JUMPDEST PUSH1 0x1 PUSH1 0x1 PUSH1 0xE0 SHL SUB NOT DUP2 AND PUSH1 0x0 SWAP1 DUP2 MSTORE PUSH1 0x20 DUP2 SWAP1 MSTORE PUSH1 0x40 SWAP1 KECCAK256 SLOAD PUSH1 0xFF AND JUMPDEST SWAP2 SWAP1 POP JUMP JUMPDEST PUSH1 0x6 DUP1 SLOAD PUSH1 0x40 DUP1 MLOAD PUSH1 0x20 PUSH1 0x1F PUSH1 0x2 PUSH1 0x0 NOT PUSH2 0x100 PUSH1 0x1 DUP9 AND ISZERO MUL ADD SWAP1 SWAP6 AND SWAP5 SWAP1 SWAP5 DIV SWAP4 DUP5 ADD DUP2 SWAP1 DIV DUP2 MUL DUP3 ADD DUP2 ADD SWAP1 SWAP3 MSTORE DUP3 DUP2 MSTORE PUSH1 0x60 SWAP4 SWAP1 SWAP3 SWAP1 SWAP2 DUP4 ADD DUP3 DUP3 DUP1 ISZERO PUSH2 0xA7D JUMPI DUP1 PUSH1 0x1F LT PUSH2 0xA52 JUMPI PUSH2 0x100 DUP1 DUP4 SLOAD DIV MUL DUP4 MSTORE SWAP2 PUSH1 0x20 ADD SWAP2 PUSH2 0xA7D JUMP JUMPDEST DUP3 ADD SWAP2 SWAP1 PUSH1 0x0 MSTORE PUSH1 0x20 PUSH1 0x0 KECCAK256 SWAP1 JUMPDEST DUP2 SLOAD DUP2 MSTORE SWAP1 PUSH1 0x1 ADD SWAP1 PUSH1 0x20 ADD DUP1 DUP4 GT PUSH2 0xA60 JUMPI DUP3 SWAP1 SUB PUSH1 0x1F AND DUP3 ADD SWAP2 JUMPDEST POP POP POP POP POP SWAP1 POP SWAP1 JUMP JUMPDEST PUSH1 0x0 PUSH2 0xA92 DUP3 PUSH2 0x1F0C JUMP JUMPDEST PUSH2 0xACD JUMPI PUSH1 0x40 MLOAD PUSH3 0x461BCD PUSH1 0xE5 SHL DUP2 MSTORE PUSH1 0x4 ADD DUP1 DUP1 PUSH1 0x20 ADD DUP3 DUP2 SUB DUP3 MSTORE PUSH1 0x2C DUP2 MSTORE PUSH1 0x20 ADD DUP1 PUSH2 0x2FB8 PUSH1 0x2C SWAP2 CODECOPY PUSH1 0x40 ADD SWAP2 POP POP PUSH1 0x40 MLOAD DUP1 SWAP2 SUB SWAP1 REVERT JUMPDEST POP PUSH1 0x0 SWAP1 DUP2 MSTORE PUSH1 0x4 PUSH1 0x20 MSTORE PUSH1 0x40 SWAP1 KECCAK256 SLOAD PUSH1 0x1 PUSH1 0x1 PUSH1 0xA0 SHL SUB AND SWAP1 JUMP JUMPDEST PUSH1 0x0 PUSH2 0xAF4 DUP3 PUSH2 0x1363 JUMP JUMPDEST SWAP1 POP DUP1 PUSH1 0x1 PUSH1 0x1 PUSH1 0xA0 SHL SUB AND DUP4 PUSH1 0x1 PUSH1 0x1 PUSH1 0xA0 SHL SUB AND EQ ISZERO PUSH2 0xB47 JUMPI PUSH1 0x40 MLOAD PUSH3 0x461BCD PUSH1 0xE5 SHL DUP2 MSTORE PUSH1 0x4 ADD DUP1 DUP1 PUSH1 0x20 ADD DUP3 DUP2 SUB DUP3 MSTORE PUSH1 0x21 DUP2 MSTORE PUSH1 0x20 ADD DUP1 PUSH2 0x3043 PUSH1 0x21 SWAP2 CODECOPY PUSH1 0x40 ADD SWAP2 POP POP PUSH1 0x40 MLOAD DUP1 SWAP2 SUB SWAP1 REVERT JUMPDEST DUP1 PUSH1 0x1 PUSH1 0x1 PUSH1 0xA0 SHL SUB AND PUSH2 0xB59 PUSH2 0x1F19 JUMP JUMPDEST PUSH1 0x1 PUSH1 0x1 PUSH1 0xA0 SHL SUB AND EQ DUP1 PUSH2 0xB7A JUMPI POP PUSH2 0xB7A DUP2 PUSH2 0xB75 PUSH2 0x1F19 JUMP JUMPDEST PUSH2 0x1D9F JUMP JUMPDEST PUSH2 0xBB5 JUMPI PUSH1 0x40 MLOAD PUSH3 0x461BCD PUSH1 0xE5 SHL DUP2 MSTORE PUSH1 0x4 ADD DUP1 DUP1 PUSH1 0x20 ADD DUP3 DUP2 SUB DUP3 MSTORE PUSH1 0x38 DUP2 MSTORE PUSH1 0x20 ADD DUP1 PUSH2 0x2E9B PUSH1 0x38 SWAP2 CODECOPY PUSH1 0x40 ADD SWAP2 POP POP PUSH1 0x40 MLOAD DUP1 SWAP2 SUB SWAP1 REVERT JUMPDEST PUSH2 0xBBF DUP4 DUP4 PUSH2 0x1F1D JUMP JUMPDEST POP POP POP JUMP JUMPDEST PUSH1 0xF SLOAD PUSH1 0x1 PUSH1 0xA0 SHL SWAP1 DIV PUSH8 0xFFFFFFFFFFFFFFFF AND DUP2 JUMP JUMPDEST PUSH1 0x0 PUSH2 0xBE7 PUSH1 0x2 PUSH2 0x1F8B JUMP JUMPDEST SWAP1 POP SWAP1 JUMP JUMPDEST PUSH2 0xBFD PUSH2 0xBF7 PUSH2 0x1F19 JUMP JUMPDEST DUP3 PUSH2 0x1F96 JUMP JUMPDEST PUSH2 0xC38 JUMPI PUSH1 0x40 MLOAD PUSH3 0x461BCD PUSH1 0xE5 SHL DUP2 MSTORE PUSH1 0x4 ADD DUP1 DUP1 PUSH1 0x20 ADD DUP3 DUP2 SUB DUP3 MSTORE PUSH1 0x31 DUP2 MSTORE PUSH1 0x20 ADD DUP1 PUSH2 0x3094 PUSH1 0x31 SWAP2 CODECOPY PUSH1 0x40 ADD SWAP2 POP POP PUSH1 0x40 MLOAD DUP1 SWAP2 SUB SWAP1 REVERT JUMPDEST PUSH2 0xBBF DUP4 DUP4 DUP4 PUSH2 0x203A JUMP JUMPDEST PUSH1 0x0 PUSH1 0xB DUP3 DUP2 SLOAD DUP2 LT PUSH2 0xC52 JUMPI INVALID JUMPDEST PUSH1 0x0 SWAP2 DUP3 MSTORE PUSH1 0x20 SWAP1 SWAP2 KECCAK256 ADD SLOAD PUSH1 0x1 PUSH1 0x1 PUSH1 0xA0 SHL SUB AND SWAP1 POP CALLER DUP2 EQ PUSH2 0xCA7 JUMPI PUSH1 0x40 MLOAD PUSH3 0x461BCD PUSH1 0xE5 SHL DUP2 MSTORE PUSH1 0x4 ADD DUP1 DUP1 PUSH1 0x20 ADD DUP3 DUP2 SUB DUP3 MSTORE PUSH1 0x27 DUP2 MSTORE PUSH1 0x20 ADD DUP1 PUSH2 0x2D39 PUSH1 0x27 SWAP2 CODECOPY PUSH1 0x40 ADD SWAP2 POP POP PUSH1 0x40 MLOAD DUP1 SWAP2 SUB SWAP1 REVERT JUMPDEST PUSH1 0x1 PUSH1 0x1 PUSH1 0xA0 SHL SUB DUP2 AND PUSH2 0xCEC JUMPI PUSH1 0x40 MLOAD PUSH3 0x461BCD PUSH1 0xE5 SHL DUP2 MSTORE PUSH1 0x4 ADD DUP1 DUP1 PUSH1 0x20 ADD DUP3 DUP2 SUB DUP3 MSTORE PUSH1 0x36 DUP2 MSTORE PUSH1 0x20 ADD DUP1 PUSH2 0x2FE4 PUSH1 0x36 SWAP2 CODECOPY PUSH1 0x40 ADD SWAP2 POP POP PUSH1 0x40 MLOAD DUP1 SWAP2 SUB SWAP1 REVERT JUMPDEST PUSH2 0xD16 CALLER PUSH32 0x0 PUSH2 0x2186 JUMP JUMPDEST PUSH1 0x0 PUSH1 0xB DUP4 DUP2 SLOAD DUP2 LT PUSH2 0xD25 JUMPI INVALID JUMPDEST PUSH1 0x0 SWAP2 DUP3 MSTORE PUSH1 0x20 SWAP2 DUP3 SWAP1 KECCAK256 ADD DUP1 SLOAD PUSH1 0x1 PUSH1 0x1 PUSH1 0xA0 SHL SUB NOT AND PUSH1 0x1 PUSH1 0x1 PUSH1 0xA0 SHL SUB SWAP4 DUP5 AND OR SWAP1 SSTORE PUSH1 0x40 DUP1 MLOAD SWAP3 DUP5 AND DUP4 MSTORE MLOAD PUSH32 0xCADA6D5A24D75E568453894E32683A8A5E6421131F8DF496749AF47C49A93287 SWAP3 DUP2 SWAP1 SUB SWAP1 SWAP2 ADD SWAP1 LOG1 POP POP JUMP JUMPDEST PUSH2 0xD8B PUSH2 0x1F19 JUMP JUMPDEST PUSH1 0x1 PUSH1 0x1 PUSH1 0xA0 SHL SUB AND PUSH2 0xD9C PUSH2 0x1548 JUMP JUMPDEST PUSH1 0x1 PUSH1 0x1 PUSH1 0xA0 SHL SUB AND EQ PUSH2 0xDF7 JUMPI PUSH1 0x40 DUP1 MLOAD PUSH3 0x461BCD PUSH1 0xE5 SHL DUP2 MSTORE PUSH1 0x20 PUSH1 0x4 DUP3 ADD DUP2 SWAP1 MSTORE PUSH1 0x24 DUP3 ADD MSTORE PUSH32 0x4F776E61626C653A2063616C6C6572206973206E6F7420746865206F776E6572 PUSH1 0x44 DUP3 ADD MSTORE SWAP1 MLOAD SWAP1 DUP2 SWAP1 SUB PUSH1 0x64 ADD SWAP1 REVERT JUMPDEST PUSH1 0xF DUP1 SLOAD PUSH1 0x1 PUSH1 0x1 PUSH1 0xA0 SHL SUB DUP4 AND PUSH1 0x1 PUSH1 0x1 PUSH1 0xA0 SHL SUB NOT SWAP1 SWAP2 AND DUP2 OR SWAP1 SWAP2 SSTORE PUSH1 0x40 DUP1 MLOAD SWAP2 DUP3 MSTORE MLOAD PUSH32 0xD1E93C69F2847F79BFA4D71704AAA84A581729B4B1706D922EE42BA1848A45C9 SWAP2 DUP2 SWAP1 SUB PUSH1 0x20 ADD SWAP1 LOG1 POP JUMP JUMPDEST PUSH1 0x1 PUSH1 0x1 PUSH1 0xA0 SHL SUB DUP3 AND PUSH1 0x0 SWAP1 DUP2 MSTORE PUSH1 0x1 PUSH1 0x20 MSTORE PUSH1 0x40 DUP2 KECCAK256 PUSH2 0xE6D SWAP1 DUP4 PUSH2 0x226B JUMP JUMPDEST SWAP1 POP JUMPDEST SWAP3 SWAP2 POP POP JUMP JUMPDEST PUSH1 0xC SLOAD PUSH1 0xD SLOAD ADD TIMESTAMP LT ISZERO PUSH2 0xED1 JUMPI PUSH1 0x40 DUP1 MLOAD PUSH3 0x461BCD PUSH1 0xE5 SHL DUP2 MSTORE PUSH1 0x20 PUSH1 0x4 DUP3 ADD MSTORE PUSH1 0x1C PUSH1 0x24 DUP3 ADD MSTORE PUSH32 0x5075707079526166666C653A20526166666C65206E6F74206F76657200000000 PUSH1 0x44 DUP3 ADD MSTORE SWAP1 MLOAD SWAP1 DUP2 SWAP1 SUB PUSH1 0x64 ADD SWAP1 REVERT JUMPDEST PUSH1 0xB SLOAD PUSH1 0x4 GT ISZERO PUSH2 0xF13 JUMPI PUSH1 0x40 MLOAD PUSH3 0x461BCD PUSH1 0xE5 SHL DUP2 MSTORE PUSH1 0x4 ADD DUP1 DUP1 PUSH1 0x20 ADD DUP3 DUP2 SUB DUP3 MSTORE PUSH1 0x24 DUP2 MSTORE PUSH1 0x20 ADD DUP1 PUSH2 0x30F6 PUSH1 0x24 SWAP2 CODECOPY PUSH1 0x40 ADD SWAP2 POP POP PUSH1 0x40 MLOAD DUP1 SWAP2 SUB SWAP1 REVERT JUMPDEST PUSH1 0xB SLOAD PUSH1 0x40 DUP1 MLOAD CALLER PUSH1 0x60 SHL PUSH1 0x20 DUP1 DUP4 ADD SWAP2 SWAP1 SWAP2 MSTORE TIMESTAMP PUSH1 0x34 DUP4 ADD MSTORE DIFFICULTY PUSH1 0x54 DUP1 DUP5 ADD SWAP2 SWAP1 SWAP2 MSTORE DUP4 MLOAD DUP1 DUP5 SUB SWAP1 SWAP2 ADD DUP2 MSTORE PUSH1 0x74 SWAP1 SWAP3 ADD SWAP1 SWAP3 MSTORE DUP1 MLOAD SWAP2 ADD KECCAK256 PUSH1 0x0 SWAP2 SWAP1 DUP2 PUSH2 0xF59 JUMPI INVALID JUMPDEST MOD SWAP1 POP PUSH1 0x0 PUSH1 0xB DUP3 DUP2 SLOAD DUP2 LT PUSH2 0xF6B JUMPI INVALID JUMPDEST PUSH1 0x0 SWAP2 DUP3 MSTORE PUSH1 0x20 DUP3 KECCAK256 ADD SLOAD PUSH1 0xB SLOAD PUSH1 0x1 PUSH1 0x1 PUSH1 0xA0 SHL SUB SWAP1 SWAP2 AND SWAP3 POP PUSH32 0x0 MUL SWAP1 PUSH1 0x64 PUSH1 0x50 DUP4 MUL DIV SWAP1 POP PUSH1 0x0 PUSH1 0x64 PUSH1 0x14 DUP5 MUL PUSH1 0xF DUP1 SLOAD PUSH8 0xFFFFFFFFFFFFFFFF PUSH1 0x1 PUSH1 0xA0 SHL DUP1 DUP4 DIV DUP3 AND SWAP6 SWAP1 SWAP5 DIV SWAP5 DUP6 ADD AND SWAP1 SWAP3 MUL PUSH8 0xFFFFFFFFFFFFFFFF PUSH1 0xA0 SHL NOT SWAP1 SWAP3 AND SWAP2 SWAP1 SWAP2 OR SWAP1 SSTORE SWAP1 POP PUSH1 0x0 PUSH2 0xFFE PUSH2 0xBDB JUMP JUMPDEST SWAP1 POP PUSH1 0x0 PUSH1 0x64 CALLER DIFFICULTY PUSH1 0x40 MLOAD PUSH1 0x20 ADD DUP1 DUP4 PUSH1 0x1 PUSH1 0x1 PUSH1 0xA0 SHL SUB AND PUSH1 0x60 SHL DUP2 MSTORE PUSH1 0x14 ADD DUP3 DUP2 MSTORE PUSH1 0x20 ADD SWAP3 POP POP POP PUSH1 0x40 MLOAD PUSH1 0x20 DUP2 DUP4 SUB SUB DUP2 MSTORE SWAP1 PUSH1 0x40 MSTORE DUP1 MLOAD SWAP1 PUSH1 0x20 ADD KECCAK256 PUSH1 0x0 SHR DUP2 PUSH2 0x1049 JUMPI INVALID JUMPDEST MOD SWAP1 POP PUSH1 0x46 DUP2 GT PUSH2 0x106B JUMPI PUSH1 0x0 DUP3 DUP2 MSTORE PUSH1 0x10 PUSH1 0x20 MSTORE PUSH1 0x40 SWAP1 KECCAK256 PUSH1 0x46 SWAP1 SSTORE PUSH2 0x109D JUMP JUMPDEST PUSH1 0x5F DUP2 GT PUSH2 0x108A JUMPI PUSH1 0x0 DUP3 DUP2 MSTORE PUSH1 0x10 PUSH1 0x20 MSTORE PUSH1 0x40 SWAP1 KECCAK256 PUSH1 0x19 SWAP1 SSTORE PUSH2 0x109D JUMP JUMPDEST PUSH1 0x0 DUP3 DUP2 MSTORE PUSH1 0x10 PUSH1 0x20 MSTORE PUSH1 0x40 SWAP1 KECCAK256 PUSH1 0x5 SWAP1 SSTORE JUMPDEST PUSH2 0x10A9 PUSH1 0xB PUSH1 0x0 PUSH2 0x2CB8 JUMP JUMPDEST TIMESTAMP PUSH1 0xD SSTORE PUSH1 0xE DUP1 SLOAD PUSH1 0x1 PUSH1 0x1 PUSH1 0xA0 SHL SUB NOT AND PUSH1 0x1 PUSH1 0x1 PUSH1 0xA0 SHL SUB DUP9 AND SWAP1 DUP2 OR SWAP1 SWAP2 SSTORE PUSH1 0x40 MLOAD PUSH1 0x0 SWAP2 SWAP1 DUP7 SWAP1 DUP4 DUP2 DUP2 DUP2 DUP6 DUP8 GAS CALL SWAP3 POP POP POP RETURNDATASIZE DUP1 PUSH1 0x0 DUP2 EQ PUSH2 0x110C JUMPI PUSH1 0x40 MLOAD SWAP2 POP PUSH1 0x1F NOT PUSH1 0x3F RETURNDATASIZE ADD AND DUP3 ADD PUSH1 0x40 MSTORE RETURNDATASIZE DUP3 MSTORE RETURNDATASIZE PUSH1 0x0 PUSH1 0x20 DUP5 ADD RETURNDATACOPY PUSH2 0x1111 JUMP JUMPDEST PUSH1 0x60 SWAP2 POP JUMPDEST POP POP SWAP1 POP DUP1 PUSH2 0x1151 JUMPI PUSH1 0x40 MLOAD PUSH3 0x461BCD PUSH1 0xE5 SHL DUP2 MSTORE PUSH1 0x4 ADD DUP1 DUP1 PUSH1 0x20 ADD DUP3 DUP2 SUB DUP3 MSTORE PUSH1 0x30 DUP2 MSTORE PUSH1 0x20 ADD DUP1 PUSH2 0x3064 PUSH1 0x30 SWAP2 CODECOPY PUSH1 0x40 ADD SWAP2 POP POP PUSH1 0x40 MLOAD DUP1 SWAP2 SUB SWAP1 REVERT JUMPDEST PUSH2 0x115B DUP8 DUP5 PUSH2 0x2277 JUMP JUMPDEST POP POP POP POP POP POP POP POP JUMP JUMPDEST PUSH1 0xD SLOAD DUP2 JUMP JUMPDEST PUSH1 0xF SLOAD PUSH1 0x1 PUSH1 0x1 PUSH1 0xA0 SHL SUB AND DUP2 JUMP JUMPDEST PUSH2 0xBBF DUP4 DUP4 DUP4 PUSH1 0x40 MLOAD DUP1 PUSH1 0x20 ADD PUSH1 0x40 MSTORE DUP1 PUSH1 0x0 DUP2 MSTORE POP PUSH2 0x172B JUMP JUMPDEST PUSH1 0xF SLOAD PUSH1 0x1 PUSH1 0xA0 SHL SWAP1 DIV PUSH8 0xFFFFFFFFFFFFFFFF AND SELFBALANCE EQ PUSH2 0x11E6 JUMPI PUSH1 0x40 MLOAD PUSH3 0x461BCD PUSH1 0xE5 SHL DUP2 MSTORE PUSH1 0x4 ADD DUP1 DUP1 PUSH1 0x20 ADD DUP3 DUP2 SUB DUP3 MSTORE PUSH1 0x30 DUP2 MSTORE PUSH1 0x20 ADD DUP1 PUSH2 0x2F26 PUSH1 0x30 SWAP2 CODECOPY PUSH1 0x40 ADD SWAP2 POP POP PUSH1 0x40 MLOAD DUP1 SWAP2 SUB SWAP1 REVERT JUMPDEST PUSH1 0xF DUP1 SLOAD PUSH8 0xFFFFFFFFFFFFFFFF PUSH1 0xA0 SHL NOT DUP2 AND SWAP1 SWAP2 SSTORE PUSH1 0x40 MLOAD PUSH8 0xFFFFFFFFFFFFFFFF PUSH1 0x1 PUSH1 0xA0 SHL DUP4 DIV AND SWAP2 PUSH1 0x0 SWAP2 PUSH1 0x1 PUSH1 0x1 PUSH1 0xA0 SHL SUB SWAP1 SWAP2 AND SWAP1 DUP4 SWAP1 DUP4 DUP2 DUP2 DUP2 DUP6 DUP8 GAS CALL SWAP3 POP POP POP RETURNDATASIZE DUP1 PUSH1 0x0 DUP2 EQ PUSH2 0x125A JUMPI PUSH1 0x40 MLOAD SWAP2 POP PUSH1 0x1F NOT PUSH1 0x3F RETURNDATASIZE ADD AND DUP3 ADD PUSH1 0x40 MSTORE RETURNDATASIZE DUP3 MSTORE RETURNDATASIZE PUSH1 0x0 PUSH1 0x20 DUP5 ADD RETURNDATACOPY PUSH2 0x125F JUMP JUMPDEST PUSH1 0x60 SWAP2 POP JUMPDEST POP POP SWAP1 POP DUP1 PUSH2 0x129F JUMPI PUSH1 0x40 MLOAD PUSH3 0x461BCD PUSH1 0xE5 SHL DUP2 MSTORE PUSH1 0x4 ADD DUP1 DUP1 PUSH1 0x20 ADD DUP3 DUP2 SUB DUP3 MSTORE PUSH1 0x24 DUP2 MSTORE PUSH1 0x20 ADD DUP1 PUSH2 0x2D15 PUSH1 0x24 SWAP2 CODECOPY PUSH1 0x40 ADD SWAP2 POP POP PUSH1 0x40 MLOAD DUP1 SWAP2 SUB SWAP1 REVERT JUMPDEST POP POP JUMP JUMPDEST PUSH1 0x11 PUSH1 0x20 SWAP1 DUP2 MSTORE PUSH1 0x0 SWAP2 DUP3 MSTORE PUSH1 0x40 SWAP2 DUP3 SWAP1 KECCAK256 DUP1 SLOAD DUP4 MLOAD PUSH1 0x1F PUSH1 0x2 PUSH1 0x0 NOT PUSH2 0x100 PUSH1 0x1 DUP7 AND ISZERO MUL ADD SWAP1 SWAP4 AND SWAP3 SWAP1 SWAP3 DIV SWAP2 DUP3 ADD DUP5 SWAP1 DIV DUP5 MUL DUP2 ADD DUP5 ADD SWAP1 SWAP5 MSTORE DUP1 DUP5 MSTORE SWAP1 SWAP2 DUP4 ADD DUP3 DUP3 DUP1 ISZERO PUSH2 0x1336 JUMPI DUP1 PUSH1 0x1F LT PUSH2 0x130B JUMPI PUSH2 0x100 DUP1 DUP4 SLOAD DIV MUL DUP4 MSTORE SWAP2 PUSH1 0x20 ADD SWAP2 PUSH2 0x1336 JUMP JUMPDEST DUP3 ADD SWAP2 SWAP1 PUSH1 0x0 MSTORE PUSH1 0x20 PUSH1 0x0 KECCAK256 SWAP1 JUMPDEST DUP2 SLOAD DUP2 MSTORE SWAP1 PUSH1 0x1 ADD SWAP1 PUSH1 0x20 ADD DUP1 DUP4 GT PUSH2 0x1319 JUMPI DUP3 SWAP1 SUB PUSH1 0x1F AND DUP3 ADD SWAP2 JUMPDEST POP POP POP POP POP DUP2 JUMP JUMPDEST PUSH1 0x0 DUP1 PUSH2 0x134C PUSH1 0x2 DUP5 PUSH2 0x2291 JUMP JUMPDEST POP SWAP4 SWAP3 POP POP POP JUMP JUMPDEST PUSH1 0xE SLOAD PUSH1 0x1 PUSH1 0x1 PUSH1 0xA0 SHL SUB AND DUP2 JUMP JUMPDEST PUSH1 0x0 PUSH2 0xE70 DUP3 PUSH1 0x40 MLOAD DUP1 PUSH1 0x60 ADD PUSH1 0x40 MSTORE DUP1 PUSH1 0x29 DUP2 MSTORE PUSH1 0x20 ADD PUSH2 0x2EFD PUSH1 0x29 SWAP2 CODECOPY PUSH1 0x2 SWAP2 SWAP1 PUSH2 0x22AD JUMP JUMPDEST PUSH32 0x0 DUP2 JUMP JUMPDEST PUSH1 0x10 PUSH1 0x20 MSTORE PUSH1 0x0 SWAP1 DUP2 MSTORE PUSH1 0x40 SWAP1 KECCAK256 SLOAD DUP2 JUMP JUMPDEST PUSH1 0x9 DUP1 SLOAD PUSH1 0x40 DUP1 MLOAD PUSH1 0x20 PUSH1 0x1F PUSH1 0x2 PUSH1 0x0 NOT PUSH2 0x100 PUSH1 0x1 DUP9 AND ISZERO MUL ADD SWAP1 SWAP6 AND SWAP5 SWAP1 SWAP5 DIV SWAP4 DUP5 ADD DUP2 SWAP1 DIV DUP2 MUL DUP3 ADD DUP2 ADD SWAP1 SWAP3 MSTORE DUP3 DUP2 MSTORE PUSH1 0x60 SWAP4 SWAP1 SWAP3 SWAP1 SWAP2 DUP4 ADD DUP3 DUP3 DUP1 ISZERO PUSH2 0xA7D JUMPI DUP1 PUSH1 0x1F LT PUSH2 0xA52 JUMPI PUSH2 0x100 DUP1 DUP4 SLOAD DIV MUL DUP4 MSTORE SWAP2 PUSH1 0x20 ADD SWAP2 PUSH2 0xA7D JUMP JUMPDEST PUSH1 0x0 PUSH1 0x1 PUSH1 0x1 PUSH1 0xA0 SHL SUB DUP3 AND PUSH2 0x1469 JUMPI PUSH1 0x40 MLOAD PUSH3 0x461BCD PUSH1 0xE5 SHL DUP2 MSTORE PUSH1 0x4 ADD DUP1 DUP1 PUSH1 0x20 ADD DUP3 DUP2 SUB DUP3 MSTORE PUSH1 0x2A DUP2 MSTORE PUSH1 0x20 ADD DUP1 PUSH2 0x2ED3 PUSH1 0x2A SWAP2 CODECOPY PUSH1 0x40 ADD SWAP2 POP POP PUSH1 0x40 MLOAD DUP1 SWAP2 SUB SWAP1 REVERT JUMPDEST PUSH1 0x1 PUSH1 0x1 PUSH1 0xA0 SHL SUB DUP3 AND PUSH1 0x0 SWAP1 DUP2 MSTORE PUSH1 0x1 PUSH1 0x20 MSTORE PUSH1 0x40 SWAP1 KECCAK256 PUSH2 0xE70 SWAP1 PUSH2 0x1F8B JUMP JUMPDEST PUSH2 0x1492 PUSH2 0x1F19 JUMP JUMPDEST PUSH1 0x1 PUSH1 0x1 PUSH1 0xA0 SHL SUB AND PUSH2 0x14A3 PUSH2 0x1548 JUMP JUMPDEST PUSH1 0x1 PUSH1 0x1 PUSH1 0xA0 SHL SUB AND EQ PUSH2 0x14FE JUMPI PUSH1 0x40 DUP1 MLOAD PUSH3 0x461BCD PUSH1 0xE5 SHL DUP2 MSTORE PUSH1 0x20 PUSH1 0x4 DUP3 ADD DUP2 SWAP1 MSTORE PUSH1 0x24 DUP3 ADD MSTORE PUSH32 0x4F776E61626C653A2063616C6C6572206973206E6F7420746865206F776E6572 PUSH1 0x44 DUP3 ADD MSTORE SWAP1 MLOAD SWAP1 DUP2 SWAP1 SUB PUSH1 0x64 ADD SWAP1 REVERT JUMPDEST PUSH1 0xA SLOAD PUSH1 0x40 MLOAD PUSH1 0x0 SWAP2 PUSH1 0x1 PUSH1 0x1 PUSH1 0xA0 SHL SUB AND SWAP1 PUSH32 0x8BE0079C531659141344CD1FD0A4F28419497F9722A3DAAFE3B4186F6B6457E0 SWAP1 DUP4 SWAP1 LOG3 PUSH1 0xA DUP1 SLOAD PUSH1 0x1 PUSH1 0x1 PUSH1 0xA0 SHL SUB NOT AND SWAP1 SSTORE JUMP JUMPDEST PUSH1 0xA SLOAD PUSH1 0x1 PUSH1 0x1 PUSH1 0xA0 SHL SUB AND SWAP1 JUMP JUMPDEST PUSH1 0x7 DUP1 SLOAD PUSH1 0x40 DUP1 MLOAD PUSH1 0x20 PUSH1 0x1F PUSH1 0x2 PUSH1 0x0 NOT PUSH2 0x100 PUSH1 0x1 DUP9 AND ISZERO MUL ADD SWAP1 SWAP6 AND SWAP5 SWAP1 SWAP5 DIV SWAP4 DUP5 ADD DUP2 SWAP1 DIV DUP2 MUL DUP3 ADD DUP2 ADD SWAP1 SWAP3 MSTORE DUP3 DUP2 MSTORE PUSH1 0x60 SWAP4 SWAP1 SWAP3 SWAP1 SWAP2 DUP4 ADD DUP3 DUP3 DUP1 ISZERO PUSH2 0xA7D JUMPI DUP1 PUSH1 0x1F LT PUSH2 0xA52 JUMPI PUSH2 0x100 DUP1 DUP4 SLOAD DIV MUL DUP4 MSTORE SWAP2 PUSH1 0x20 ADD SWAP2 PUSH2 0xA7D JUMP JUMPDEST PUSH1 0x12 PUSH1 0x20 SWAP1 DUP2 MSTORE PUSH1 0x0 SWAP2 DUP3 MSTORE PUSH1 0x40 SWAP2 DUP3 SWAP1 KECCAK256 DUP1 SLOAD DUP4 MLOAD PUSH1 0x1F PUSH1 0x2 PUSH1 0x0 NOT PUSH2 0x100 PUSH1 0x1 DUP7 AND ISZERO MUL ADD SWAP1 SWAP4 AND SWAP3 SWAP1 SWAP3 DIV SWAP2 DUP3 ADD DUP5 SWAP1 DIV DUP5 MUL DUP2 ADD DUP5 ADD SWAP1 SWAP5 MSTORE DUP1 DUP5 MSTORE SWAP1 SWAP2 DUP4 ADD DUP3 DUP3 DUP1 ISZERO PUSH2 0x1336 JUMPI DUP1 PUSH1 0x1F LT PUSH2 0x130B JUMPI PUSH2 0x100 DUP1 DUP4 SLOAD DIV MUL DUP4 MSTORE SWAP2 PUSH1 0x20 ADD SWAP2 PUSH2 0x1336 JUMP JUMPDEST PUSH2 0x1628 PUSH2 0x1F19 JUMP JUMPDEST PUSH1 0x1 PUSH1 0x1 PUSH1 0xA0 SHL SUB AND DUP3 PUSH1 0x1 PUSH1 0x1 PUSH1 0xA0 SHL SUB AND EQ ISZERO PUSH2 0x168E JUMPI PUSH1 0x40 DUP1 MLOAD PUSH3 0x461BCD PUSH1 0xE5 SHL DUP2 MSTORE PUSH1 0x20 PUSH1 0x4 DUP3 ADD MSTORE PUSH1 0x19 PUSH1 0x24 DUP3 ADD MSTORE PUSH32 0x4552433732313A20617070726F766520746F2063616C6C657200000000000000 PUSH1 0x44 DUP3 ADD MSTORE SWAP1 MLOAD SWAP1 DUP2 SWAP1 SUB PUSH1 0x64 ADD SWAP1 REVERT JUMPDEST DUP1 PUSH1 0x5 PUSH1 0x0 PUSH2 0x169B PUSH2 0x1F19 JUMP JUMPDEST PUSH1 0x1 PUSH1 0x1 PUSH1 0xA0 SHL SUB SWAP1 DUP2 AND DUP3 MSTORE PUSH1 0x20 DUP1 DUP4 ADD SWAP4 SWAP1 SWAP4 MSTORE PUSH1 0x40 SWAP2 DUP3 ADD PUSH1 0x0 SWAP1 DUP2 KECCAK256 SWAP2 DUP8 AND DUP1 DUP3 MSTORE SWAP2 SWAP1 SWAP4 MSTORE SWAP2 KECCAK256 DUP1 SLOAD PUSH1 0xFF NOT AND SWAP3 ISZERO ISZERO SWAP3 SWAP1 SWAP3 OR SWAP1 SWAP2 SSTORE PUSH2 0x16DF PUSH2 0x1F19 JUMP JUMPDEST PUSH1 0x1 PUSH1 0x1 PUSH1 0xA0 SHL SUB AND PUSH32 0x17307EAB39AB6107E8899845AD3D59BD9653F200F220920489CA2B5937696C31 DUP4 PUSH1 0x40 MLOAD DUP1 DUP3 ISZERO ISZERO DUP2 MSTORE PUSH1 0x20 ADD SWAP2 POP POP PUSH1 0x40 MLOAD DUP1 SWAP2 SUB SWAP1 LOG3 POP POP JUMP JUMPDEST PUSH1 0xC SLOAD DUP2 JUMP JUMPDEST PUSH2 0x173C PUSH2 0x1736 PUSH2 0x1F19 JUMP JUMPDEST DUP4 PUSH2 0x1F96 JUMP JUMPDEST PUSH2 0x1777 JUMPI PUSH1 0x40 MLOAD PUSH3 0x461BCD PUSH1 0xE5 SHL DUP2 MSTORE PUSH1 0x4 ADD DUP1 DUP1 PUSH1 0x20 ADD DUP3 DUP2 SUB DUP3 MSTORE PUSH1 0x31 DUP2 MSTORE PUSH1 0x20 ADD DUP1 PUSH2 0x3094 PUSH1 0x31 SWAP2 CODECOPY PUSH1 0x40 ADD SWAP2 POP POP PUSH1 0x40 MLOAD DUP1 SWAP2 SUB SWAP1 REVERT JUMPDEST PUSH2 0x1783 DUP5 DUP5 DUP5 DUP5 PUSH2 0x22C4 JUMP JUMPDEST POP POP POP POP JUMP JUMPDEST PUSH1 0x46 DUP2 JUMP JUMPDEST PUSH1 0x5 DUP2 JUMP JUMPDEST PUSH1 0x60 PUSH2 0x179E DUP3 PUSH2 0x1F0C JUMP JUMPDEST PUSH2 0x17D9 JUMPI PUSH1 0x40 MLOAD PUSH3 0x461BCD PUSH1 0xE5 SHL DUP2 MSTORE PUSH1 0x4 ADD DUP1 DUP1 PUSH1 0x20 ADD DUP3 DUP2 SUB DUP3 MSTORE PUSH1 0x2C DUP2 MSTORE PUSH1 0x20 ADD DUP1 PUSH2 0x2DE5 PUSH1 0x2C SWAP2 CODECOPY PUSH1 0x40 ADD SWAP2 POP POP PUSH1 0x40 MLOAD DUP1 SWAP2 SUB SWAP1 REVERT JUMPDEST PUSH1 0x0 DUP3 DUP2 MSTORE PUSH1 0x10 PUSH1 0x20 SWAP1 DUP2 MSTORE PUSH1 0x40 DUP1 DUP4 KECCAK256 SLOAD DUP1 DUP5 MSTORE PUSH1 0x11 DUP4 MSTORE DUP2 DUP5 KECCAK256 DUP1 SLOAD DUP4 MLOAD PUSH1 0x1F PUSH1 0x2 PUSH1 0x0 NOT PUSH2 0x100 PUSH1 0x1 DUP7 AND ISZERO MUL ADD SWAP1 SWAP4 AND SWAP3 SWAP1 SWAP3 DIV SWAP2 DUP3 ADD DUP7 SWAP1 DIV DUP7 MUL DUP2 ADD DUP7 ADD SWAP1 SWAP5 MSTORE DUP1 DUP5 MSTORE SWAP2 SWAP5 SWAP4 SWAP1 SWAP2 SWAP1 DUP4 ADD DUP3 DUP3 DUP1 ISZERO PUSH2 0x187A JUMPI DUP1 PUSH1 0x1F LT PUSH2 0x184F JUMPI PUSH2 0x100 DUP1 DUP4 SLOAD DIV MUL DUP4 MSTORE SWAP2 PUSH1 0x20 ADD SWAP2 PUSH2 0x187A JUMP JUMPDEST DUP3 ADD SWAP2 SWAP1 PUSH1 0x0 MSTORE PUSH1 0x20 PUSH1 0x0 KECCAK256 SWAP1 JUMPDEST DUP2 SLOAD DUP2 MSTORE SWAP1 PUSH1 0x1 ADD SWAP1 PUSH1 0x20 ADD DUP1 DUP4 GT PUSH2 0x185D JUMPI DUP3 SWAP1 SUB PUSH1 0x1F AND DUP3 ADD SWAP2 JUMPDEST POP POP POP PUSH1 0x0 DUP6 DUP2 MSTORE PUSH1 0x12 PUSH1 0x20 SWAP1 DUP2 MSTORE PUSH1 0x40 DUP1 DUP4 KECCAK256 DUP1 SLOAD DUP3 MLOAD PUSH1 0x2 PUSH1 0x1 DUP4 AND ISZERO PUSH2 0x100 MUL PUSH1 0x0 NOT ADD SWAP1 SWAP3 AND SWAP2 SWAP1 SWAP2 DIV PUSH1 0x1F DUP2 ADD DUP6 SWAP1 DIV DUP6 MUL DUP3 ADD DUP6 ADD SWAP1 SWAP4 MSTORE DUP3 DUP2 MSTORE SWAP7 SWAP8 POP SWAP3 SWAP6 SWAP5 POP SWAP2 SWAP3 POP DUP4 ADD DUP3 DUP3 DUP1 ISZERO PUSH2 0x1916 JUMPI DUP1 PUSH1 0x1F LT PUSH2 0x18EB JUMPI PUSH2 0x100 DUP1 DUP4 SLOAD DIV MUL DUP4 MSTORE SWAP2 PUSH1 0x20 ADD SWAP2 PUSH2 0x1916 JUMP JUMPDEST DUP3 ADD SWAP2 SWAP1 PUSH1 0x0 MSTORE PUSH1 0x20 PUSH1 0x0 KECCAK256 SWAP1 JUMPDEST DUP2 SLOAD DUP2 MSTORE SWAP1 PUSH1 0x1 ADD SWAP1 PUSH1 0x20 ADD DUP1 DUP4 GT PUSH2 0x18F9 JUMPI DUP3 SWAP1 SUB PUSH1 0x1F AND DUP3 ADD SWAP2 JUMPDEST POP POP POP POP POP SWAP1 POP PUSH2 0x1925 PUSH2 0x2316 JUMP JUMPDEST PUSH2 0x1A83 PUSH2 0x1930 PUSH2 0x9F1 JUMP JUMPDEST DUP4 DUP6 PUSH1 0x40 MLOAD PUSH1 0x20 ADD DUP1 DUP1 PUSH9 0x3D913730B6B2911D11 PUSH1 0xB9 SHL DUP2 MSTORE POP PUSH1 0x9 ADD DUP5 DUP1 MLOAD SWAP1 PUSH1 0x20 ADD SWAP1 DUP1 DUP4 DUP4 JUMPDEST PUSH1 0x20 DUP4 LT PUSH2 0x1978 JUMPI DUP1 MLOAD DUP3 MSTORE PUSH1 0x1F NOT SWAP1 SWAP3 ADD SWAP2 PUSH1 0x20 SWAP2 DUP3 ADD SWAP2 ADD PUSH2 0x1959 JUMP JUMPDEST PUSH1 0x1 DUP4 PUSH1 0x20 SUB PUSH2 0x100 EXP SUB DUP1 NOT DUP3 MLOAD AND DUP2 DUP5 MLOAD AND DUP1 DUP3 OR DUP6 MSTORE POP POP POP POP POP POP SWAP1 POP ADD DUP1 PUSH2 0x311A PUSH1 0x27 SWAP2 CODECOPY PUSH1 0x27 ADD PUSH1 0x31 PUSH2 0x30C5 DUP3 CODECOPY PUSH1 0x31 ADD DUP4 DUP1 MLOAD SWAP1 PUSH1 0x20 ADD SWAP1 DUP1 DUP4 DUP4 JUMPDEST PUSH1 0x20 DUP4 LT PUSH2 0x19DA JUMPI DUP1 MLOAD DUP3 MSTORE PUSH1 0x1F NOT SWAP1 SWAP3 ADD SWAP2 PUSH1 0x20 SWAP2 DUP3 ADD SWAP2 ADD PUSH2 0x19BB JUMP JUMPDEST MLOAD DUP2 MLOAD PUSH1 0x20 SWAP4 DUP5 SUB PUSH2 0x100 EXP PUSH1 0x0 NOT ADD DUP1 NOT SWAP1 SWAP3 AND SWAP2 AND OR SWAP1 MSTORE PUSH13 0x3EAE96101134B6B0B3B2911D11 PUSH1 0x99 SHL SWAP2 SWAP1 SWAP4 ADD SWAP1 DUP2 MSTORE DUP5 MLOAD PUSH1 0xD SWAP1 SWAP2 ADD SWAP3 DUP6 ADD SWAP2 POP DUP1 DUP4 DUP4 JUMPDEST PUSH1 0x20 DUP4 LT PUSH2 0x1A3B JUMPI DUP1 MLOAD DUP3 MSTORE PUSH1 0x1F NOT SWAP1 SWAP3 ADD SWAP2 PUSH1 0x20 SWAP2 DUP3 ADD SWAP2 ADD PUSH2 0x1A1C JUMP JUMPDEST PUSH1 0x1 DUP4 PUSH1 0x20 SUB PUSH2 0x100 EXP SUB DUP1 NOT DUP3 MLOAD AND DUP2 DUP5 MLOAD AND DUP1 DUP3 OR DUP6 MSTORE POP POP POP POP POP POP SWAP1 POP ADD DUP1 PUSH2 0x227D PUSH1 0xF0 SHL DUP2 MSTORE POP PUSH1 0x2 ADD SWAP4 POP POP POP POP PUSH1 0x40 MLOAD PUSH1 0x20 DUP2 DUP4 SUB SUB DUP2 MSTORE SWAP1 PUSH1 0x40 MSTORE PUSH2 0x234D JUMP JUMPDEST PUSH1 0x40 MLOAD PUSH1 0x20 ADD DUP1 DUP4 DUP1 MLOAD SWAP1 PUSH1 0x20 ADD SWAP1 DUP1 DUP4 DUP4 JUMPDEST PUSH1 0x20 DUP4 LT PUSH2 0x1AB5 JUMPI DUP1 MLOAD DUP3 MSTORE PUSH1 0x1F NOT SWAP1 SWAP3 ADD SWAP2 PUSH1 0x20 SWAP2 DUP3 ADD SWAP2 ADD PUSH2 0x1A96 JUMP JUMPDEST MLOAD DUP2 MLOAD PUSH1 0x20 SWAP4 DUP5 SUB PUSH2 0x100 EXP PUSH1 0x0 NOT ADD DUP1 NOT SWAP1 SWAP3 AND SWAP2 AND OR SWAP1 MSTORE DUP6 MLOAD SWAP2 SWAP1 SWAP4 ADD SWAP3 DUP6 ADD SWAP2 POP DUP1 DUP4 DUP4 JUMPDEST PUSH1 0x20 DUP4 LT PUSH2 0x1AFD JUMPI DUP1 MLOAD DUP3 MSTORE PUSH1 0x1F NOT SWAP1 SWAP3 ADD SWAP2 PUSH1 0x20 SWAP2 DUP3 ADD SWAP2 ADD PUSH2 0x1ADE JUMP JUMPDEST PUSH1 0x1 DUP4 PUSH1 0x20 SUB PUSH2 0x100 EXP SUB DUP1 NOT DUP3 MLOAD AND DUP2 DUP5 MLOAD AND DUP1 DUP3 OR DUP6 MSTORE POP POP POP POP POP POP SWAP1 POP ADD SWAP3 POP POP POP PUSH1 0x40 MLOAD PUSH1 0x20 DUP2 DUP4 SUB SUB DUP2 MSTORE SWAP1 PUSH1 0x40 MSTORE SWAP4 POP POP POP POP SWAP2 SWAP1 POP JUMP JUMPDEST PUSH1 0x19 DUP2 JUMP JUMPDEST PUSH1 0x0 DUP1 JUMPDEST PUSH1 0xB SLOAD DUP2 LT ISZERO PUSH2 0x1B90 JUMPI DUP3 PUSH1 0x1 PUSH1 0x1 PUSH1 0xA0 SHL SUB AND PUSH1 0xB DUP3 DUP2 SLOAD DUP2 LT PUSH2 0x1B66 JUMPI INVALID JUMPDEST PUSH1 0x0 SWAP2 DUP3 MSTORE PUSH1 0x20 SWAP1 SWAP2 KECCAK256 ADD SLOAD PUSH1 0x1 PUSH1 0x1 PUSH1 0xA0 SHL SUB AND EQ ISZERO PUSH2 0x1B88 JUMPI SWAP1 POP PUSH2 0x9EC JUMP JUMPDEST PUSH1 0x1 ADD PUSH2 0x1B45 JUMP JUMPDEST POP PUSH1 0x0 SWAP3 SWAP2 POP POP JUMP JUMPDEST DUP1 MLOAD PUSH32 0x0 MUL CALLVALUE EQ PUSH2 0x1BFA JUMPI PUSH1 0x40 MLOAD PUSH3 0x461BCD PUSH1 0xE5 SHL DUP2 MSTORE PUSH1 0x4 ADD DUP1 DUP1 PUSH1 0x20 ADD DUP3 DUP2 SUB DUP3 MSTORE PUSH1 0x2D DUP2 MSTORE PUSH1 0x20 ADD DUP1 PUSH2 0x2DB8 PUSH1 0x2D SWAP2 CODECOPY PUSH1 0x40 ADD SWAP2 POP POP PUSH1 0x40 MLOAD DUP1 SWAP2 SUB SWAP1 REVERT JUMPDEST PUSH1 0x0 JUMPDEST DUP2 MLOAD DUP2 LT ISZERO PUSH2 0x1C59 JUMPI PUSH1 0xB DUP3 DUP3 DUP2 MLOAD DUP2 LT PUSH2 0x1C14 JUMPI INVALID JUMPDEST PUSH1 0x20 SWAP1 DUP2 MUL SWAP2 SWAP1 SWAP2 ADD DUP2 ADD MLOAD DUP3 SLOAD PUSH1 0x1 DUP1 DUP3 ADD DUP6 SSTORE PUSH1 0x0 SWAP5 DUP6 MSTORE SWAP3 SWAP1 SWAP4 KECCAK256 SWAP1 SWAP3 ADD DUP1 SLOAD PUSH1 0x1 PUSH1 0x1 PUSH1 0xA0 SHL SUB NOT AND PUSH1 0x1 PUSH1 0x1 PUSH1 0xA0 SHL SUB SWAP1 SWAP4 AND SWAP3 SWAP1 SWAP3 OR SWAP1 SWAP2 SSTORE ADD PUSH2 0x1BFD JUMP JUMPDEST POP PUSH1 0x0 JUMPDEST PUSH1 0xB SLOAD PUSH1 0x0 NOT ADD DUP2 LT ISZERO PUSH2 0x1D26 JUMPI PUSH1 0x1 DUP2 ADD JUMPDEST PUSH1 0xB SLOAD DUP2 LT ISZERO PUSH2 0x1D1D JUMPI PUSH1 0xB DUP2 DUP2 SLOAD DUP2 LT PUSH2 0x1C87 JUMPI INVALID JUMPDEST PUSH1 0x0 SWAP2 DUP3 MSTORE PUSH1 0x20 SWAP1 SWAP2 KECCAK256 ADD SLOAD PUSH1 0xB DUP1 SLOAD PUSH1 0x1 PUSH1 0x1 PUSH1 0xA0 SHL SUB SWAP1 SWAP3 AND SWAP2 DUP5 SWAP1 DUP2 LT PUSH2 0x1CAD JUMPI INVALID JUMPDEST PUSH1 0x0 SWAP2 DUP3 MSTORE PUSH1 0x20 SWAP1 SWAP2 KECCAK256 ADD SLOAD PUSH1 0x1 PUSH1 0x1 PUSH1 0xA0 SHL SUB AND EQ ISZERO PUSH2 0x1D15 JUMPI PUSH1 0x40 DUP1 MLOAD PUSH3 0x461BCD PUSH1 0xE5 SHL DUP2 MSTORE PUSH1 0x20 PUSH1 0x4 DUP3 ADD MSTORE PUSH1 0x1D PUSH1 0x24 DUP3 ADD MSTORE PUSH32 0x5075707079526166666C653A204475706C696361746520706C61796572000000 PUSH1 0x44 DUP3 ADD MSTORE SWAP1 MLOAD SWAP1 DUP2 SWAP1 SUB PUSH1 0x64 ADD SWAP1 REVERT JUMPDEST PUSH1 0x1 ADD PUSH2 0x1C70 JUMP JUMPDEST POP PUSH1 0x1 ADD PUSH2 0x1C5D JUMP JUMPDEST POP PUSH32 0xB1C4333D548C772FCF6CF94FF4113AA3D3EFCDBEDD89953B15A30752B94E3582 DUP2 PUSH1 0x40 MLOAD DUP1 DUP1 PUSH1 0x20 ADD DUP3 DUP2 SUB DUP3 MSTORE DUP4 DUP2 DUP2 MLOAD DUP2 MSTORE PUSH1 0x20 ADD SWAP2 POP DUP1 MLOAD SWAP1 PUSH1 0x20 ADD SWAP1 PUSH1 0x20 MUL DUP1 DUP4 DUP4 PUSH1 0x0 JUMPDEST DUP4 DUP2 LT ISZERO PUSH2 0x1D89 JUMPI DUP2 DUP2 ADD MLOAD DUP4 DUP3 ADD MSTORE PUSH1 0x20 ADD PUSH2 0x1D71 JUMP JUMPDEST POP POP POP POP SWAP1 POP ADD SWAP3 POP POP POP PUSH1 0x40 MLOAD DUP1 SWAP2 SUB SWAP1 LOG1 POP JUMP JUMPDEST PUSH1 0x1 PUSH1 0x1 PUSH1 0xA0 SHL SUB SWAP2 DUP3 AND PUSH1 0x0 SWAP1 DUP2 MSTORE PUSH1 0x5 PUSH1 0x20 SWAP1 DUP2 MSTORE PUSH1 0x40 DUP1 DUP4 KECCAK256 SWAP4 SWAP1 SWAP5 AND DUP3 MSTORE SWAP2 SWAP1 SWAP2 MSTORE KECCAK256 SLOAD PUSH1 0xFF AND SWAP1 JUMP JUMPDEST PUSH2 0x1DD5 PUSH2 0x1F19 JUMP JUMPDEST PUSH1 0x1 PUSH1 0x1 PUSH1 0xA0 SHL SUB AND PUSH2 0x1DE6 PUSH2 0x1548 JUMP JUMPDEST PUSH1 0x1 PUSH1 0x1 PUSH1 0xA0 SHL SUB AND EQ PUSH2 0x1E41 JUMPI PUSH1 0x40 DUP1 MLOAD PUSH3 0x461BCD PUSH1 0xE5 SHL DUP2 MSTORE PUSH1 0x20 PUSH1 0x4 DUP3 ADD DUP2 SWAP1 MSTORE PUSH1 0x24 DUP3 ADD MSTORE PUSH32 0x4F776E61626C653A2063616C6C6572206973206E6F7420746865206F776E6572 PUSH1 0x44 DUP3 ADD MSTORE SWAP1 MLOAD SWAP1 DUP2 SWAP1 SUB PUSH1 0x64 ADD SWAP1 REVERT JUMPDEST PUSH1 0x1 PUSH1 0x1 PUSH1 0xA0 SHL SUB DUP2 AND PUSH2 0x1E86 JUMPI PUSH1 0x40 MLOAD PUSH3 0x461BCD PUSH1 0xE5 SHL DUP2 MSTORE PUSH1 0x4 ADD DUP1 DUP1 PUSH1 0x20 ADD DUP3 DUP2 SUB DUP3 MSTORE PUSH1 0x26 DUP2 MSTORE PUSH1 0x20 ADD DUP1 PUSH2 0x2D92 PUSH1 0x26 SWAP2 CODECOPY PUSH1 0x40 ADD SWAP2 POP POP PUSH1 0x40 MLOAD DUP1 SWAP2 SUB SWAP1 REVERT JUMPDEST PUSH1 0xA SLOAD PUSH1 0x40 MLOAD PUSH1 0x1 PUSH1 0x1 PUSH1 0xA0 SHL SUB DUP1 DUP5 AND SWAP3 AND SWAP1 PUSH32 0x8BE0079C531659141344CD1FD0A4F28419497F9722A3DAAFE3B4186F6B6457E0 SWAP1 PUSH1 0x0 SWAP1 LOG3 PUSH1 0xA DUP1 SLOAD PUSH1 0x1 PUSH1 0x1 PUSH1 0xA0 SHL SUB NOT AND PUSH1 0x1 PUSH1 0x1 PUSH1 0xA0 SHL SUB SWAP3 SWAP1 SWAP3 AND SWAP2 SWAP1 SWAP2 OR SWAP1 SSTORE JUMP JUMPDEST PUSH1 0xB DUP2 DUP2 SLOAD DUP2 LT PUSH2 0x1EF2 JUMPI PUSH1 0x0 DUP1 REVERT JUMPDEST PUSH1 0x0 SWAP2 DUP3 MSTORE PUSH1 0x20 SWAP1 SWAP2 KECCAK256 ADD SLOAD PUSH1 0x1 PUSH1 0x1 PUSH1 0xA0 SHL SUB AND SWAP1 POP DUP2 JUMP JUMPDEST PUSH1 0x0 PUSH2 0xE70 PUSH1 0x2 DUP4 PUSH2 0x2499 JUMP JUMPDEST CALLER SWAP1 JUMP JUMPDEST PUSH1 0x0 DUP2 DUP2 MSTORE PUSH1 0x4 PUSH1 0x20 MSTORE PUSH1 0x40 SWAP1 KECCAK256 DUP1 SLOAD PUSH1 0x1 PUSH1 0x1 PUSH1 0xA0 SHL SUB NOT AND PUSH1 0x1 PUSH1 0x1 PUSH1 0xA0 SHL SUB DUP5 AND SWAP1 DUP2 OR SWAP1 SWAP2 SSTORE DUP2 SWAP1 PUSH2 0x1F52 DUP3 PUSH2 0x1363 JUMP JUMPDEST PUSH1 0x1 PUSH1 0x1 PUSH1 0xA0 SHL SUB AND PUSH32 0x8C5BE1E5EBEC7D5BD14F71427D1E84F3DD0314C0F7B2291E5B200AC8C7C3B925 PUSH1 0x40 MLOAD PUSH1 0x40 MLOAD DUP1 SWAP2 SUB SWAP1 LOG4 POP POP JUMP JUMPDEST PUSH1 0x0 PUSH2 0xE70 DUP3 PUSH2 0x24A5 JUMP JUMPDEST PUSH1 0x0 PUSH2 0x1FA1 DUP3 PUSH2 0x1F0C JUMP JUMPDEST PUSH2 0x1FDC JUMPI PUSH1 0x40 MLOAD PUSH3 0x461BCD PUSH1 0xE5 SHL DUP2 MSTORE PUSH1 0x4 ADD DUP1 DUP1 PUSH1 0x20 ADD DUP3 DUP2 SUB DUP3 MSTORE PUSH1 0x2C DUP2 MSTORE PUSH1 0x20 ADD DUP1 PUSH2 0x2E6F PUSH1 0x2C SWAP2 CODECOPY PUSH1 0x40 ADD SWAP2 POP POP PUSH1 0x40 MLOAD DUP1 SWAP2 SUB SWAP1 REVERT JUMPDEST PUSH1 0x0 PUSH2 0x1FE7 DUP4 PUSH2 0x1363 JUMP JUMPDEST SWAP1 POP DUP1 PUSH1 0x1 PUSH1 0x1 PUSH1 0xA0 SHL SUB AND DUP5 PUSH1 0x1 PUSH1 0x1 PUSH1 0xA0 SHL SUB AND EQ DUP1 PUSH2 0x2022 JUMPI POP DUP4 PUSH1 0x1 PUSH1 0x1 PUSH1 0xA0 SHL SUB AND PUSH2 0x2017 DUP5 PUSH2 0xA87 JUMP JUMPDEST PUSH1 0x1 PUSH1 0x1 PUSH1 0xA0 SHL SUB AND EQ JUMPDEST DUP1 PUSH2 0x2032 JUMPI POP PUSH2 0x2032 DUP2 DUP6 PUSH2 0x1D9F JUMP JUMPDEST SWAP5 SWAP4 POP POP POP POP JUMP JUMPDEST DUP3 PUSH1 0x1 PUSH1 0x1 PUSH1 0xA0 SHL SUB AND PUSH2 0x204D DUP3 PUSH2 0x1363 JUMP JUMPDEST PUSH1 0x1 PUSH1 0x1 PUSH1 0xA0 SHL SUB AND EQ PUSH2 0x2092 JUMPI PUSH1 0x40 MLOAD PUSH3 0x461BCD PUSH1 0xE5 SHL DUP2 MSTORE PUSH1 0x4 ADD DUP1 DUP1 PUSH1 0x20 ADD DUP3 DUP2 SUB DUP3 MSTORE PUSH1 0x29 DUP2 MSTORE PUSH1 0x20 ADD DUP1 PUSH2 0x301A PUSH1 0x29 SWAP2 CODECOPY PUSH1 0x40 ADD SWAP2 POP POP PUSH1 0x40 MLOAD DUP1 SWAP2 SUB SWAP1 REVERT JUMPDEST PUSH1 0x1 PUSH1 0x1 PUSH1 0xA0 SHL SUB DUP3 AND PUSH2 0x20D7 JUMPI PUSH1 0x40 MLOAD PUSH3 0x461BCD PUSH1 0xE5 SHL DUP2 MSTORE PUSH1 0x4 ADD DUP1 DUP1 PUSH1 0x20 ADD DUP3 DUP2 SUB DUP3 MSTORE PUSH1 0x24 DUP2 MSTORE PUSH1 0x20 ADD DUP1 PUSH2 0x2E11 PUSH1 0x24 SWAP2 CODECOPY PUSH1 0x40 ADD SWAP2 POP POP PUSH1 0x40 MLOAD DUP1 SWAP2 SUB SWAP1 REVERT JUMPDEST PUSH2 0x20E2 DUP4 DUP4 DUP4 PUSH2 0xBBF JUMP JUMPDEST PUSH2 0x20ED PUSH1 0x0 DUP3 PUSH2 0x1F1D JUMP JUMPDEST PUSH1 0x1 PUSH1 0x1 PUSH1 0xA0 SHL SUB DUP4 AND PUSH1 0x0 SWAP1 DUP2 MSTORE PUSH1 0x1 PUSH1 0x20 MSTORE PUSH1 0x40 SWAP1 KECCAK256 PUSH2 0x210F SWAP1 DUP3 PUSH2 0x24A9 JUMP JUMPDEST POP PUSH1 0x1 PUSH1 0x1 PUSH1 0xA0 SHL SUB DUP3 AND PUSH1 0x0 SWAP1 DUP2 MSTORE PUSH1 0x1 PUSH1 0x20 MSTORE PUSH1 0x40 SWAP1 KECCAK256 PUSH2 0x2132 SWAP1 DUP3 PUSH2 0x24B5 JUMP JUMPDEST POP PUSH2 0x213F PUSH1 0x2 DUP3 DUP5 PUSH2 0x24C1 JUMP JUMPDEST POP DUP1 DUP3 PUSH1 0x1 PUSH1 0x1 PUSH1 0xA0 SHL SUB AND DUP5 PUSH1 0x1 PUSH1 0x1 PUSH1 0xA0 SHL SUB AND PUSH32 0xDDF252AD1BE2C89B69C2B068FC378DAA952BA7F163C4A11628F55A4DF523B3EF PUSH1 0x40 MLOAD PUSH1 0x40 MLOAD DUP1 SWAP2 SUB SWAP1 LOG4 POP POP POP JUMP JUMPDEST DUP1 SELFBALANCE LT ISZERO PUSH2 0x21DB JUMPI PUSH1 0x40 DUP1 MLOAD PUSH3 0x461BCD PUSH1 0xE5 SHL DUP2 MSTORE PUSH1 0x20 PUSH1 0x4 DUP3 ADD MSTORE PUSH1 0x1D PUSH1 0x24 DUP3 ADD MSTORE PUSH32 0x416464726573733A20696E73756666696369656E742062616C616E6365000000 PUSH1 0x44 DUP3 ADD MSTORE SWAP1 MLOAD SWAP1 DUP2 SWAP1 SUB PUSH1 0x64 ADD SWAP1 REVERT JUMPDEST PUSH1 0x40 MLOAD PUSH1 0x0 SWAP1 PUSH1 0x1 PUSH1 0x1 PUSH1 0xA0 SHL SUB DUP5 AND SWAP1 DUP4 SWAP1 DUP4 DUP2 DUP2 DUP2 DUP6 DUP8 GAS CALL SWAP3 POP POP POP RETURNDATASIZE DUP1 PUSH1 0x0 DUP2 EQ PUSH2 0x2226 JUMPI PUSH1 0x40 MLOAD SWAP2 POP PUSH1 0x1F NOT PUSH1 0x3F RETURNDATASIZE ADD AND DUP3 ADD PUSH1 0x40 MSTORE RETURNDATASIZE DUP3 MSTORE RETURNDATASIZE PUSH1 0x0 PUSH1 0x20 DUP5 ADD RETURNDATACOPY PUSH2 0x222B JUMP JUMPDEST PUSH1 0x60 SWAP2 POP JUMPDEST POP POP SWAP1 POP DUP1 PUSH2 0xBBF JUMPI PUSH1 0x40 MLOAD PUSH3 0x461BCD PUSH1 0xE5 SHL DUP2 MSTORE PUSH1 0x4 ADD DUP1 DUP1 PUSH1 0x20 ADD DUP3 DUP2 SUB DUP3 MSTORE PUSH1 0x3A DUP2 MSTORE PUSH1 0x20 ADD DUP1 PUSH2 0x2E35 PUSH1 0x3A SWAP2 CODECOPY PUSH1 0x40 ADD SWAP2 POP POP PUSH1 0x40 MLOAD DUP1 SWAP2 SUB SWAP1 REVERT JUMPDEST PUSH1 0x0 PUSH2 0xE6D DUP4 DUP4 PUSH2 0x24D7 JUMP JUMPDEST PUSH2 0x129F DUP3 DUP3 PUSH1 0x40 MLOAD DUP1 PUSH1 0x20 ADD PUSH1 0x40 MSTORE DUP1 PUSH1 0x0 DUP2 MSTORE POP PUSH2 0x253B JUMP JUMPDEST PUSH1 0x0 DUP1 DUP1 DUP1 PUSH2 0x22A0 DUP7 DUP7 PUSH2 0x258D JUMP JUMPDEST SWAP1 SWAP8 SWAP1 SWAP7 POP SWAP5 POP POP POP POP POP JUMP JUMPDEST PUSH1 0x0 PUSH2 0x22BA DUP5 DUP5 DUP5 PUSH2 0x2608 JUMP JUMPDEST SWAP1 POP JUMPDEST SWAP4 SWAP3 POP POP POP JUMP JUMPDEST PUSH2 0x22CF DUP5 DUP5 DUP5 PUSH2 0x203A JUMP JUMPDEST PUSH2 0x22DB DUP5 DUP5 DUP5 DUP5 PUSH2 0x26D2 JUMP JUMPDEST PUSH2 0x1783 JUMPI PUSH1 0x40 MLOAD PUSH3 0x461BCD PUSH1 0xE5 SHL DUP2 MSTORE PUSH1 0x4 ADD DUP1 DUP1 PUSH1 0x20 ADD DUP3 DUP2 SUB DUP3 MSTORE PUSH1 0x32 DUP2 MSTORE PUSH1 0x20 ADD DUP1 PUSH2 0x2D60 PUSH1 0x32 SWAP2 CODECOPY PUSH1 0x40 ADD SWAP2 POP POP PUSH1 0x40 MLOAD DUP1 SWAP2 SUB SWAP1 REVERT JUMPDEST PUSH1 0x40 DUP1 MLOAD DUP1 DUP3 ADD SWAP1 SWAP2 MSTORE PUSH1 0x1D DUP2 MSTORE PUSH32 0x646174613A6170706C69636174696F6E2F6A736F6E3B6261736536342C000000 PUSH1 0x20 DUP3 ADD MSTORE SWAP1 JUMP JUMPDEST PUSH1 0x60 DUP2 MLOAD PUSH1 0x0 EQ ISZERO PUSH2 0x236E JUMPI POP PUSH1 0x40 DUP1 MLOAD PUSH1 0x20 DUP2 ADD SWAP1 SWAP2 MSTORE PUSH1 0x0 DUP2 MSTORE PUSH2 0x9EC JUMP JUMPDEST PUSH1 0x0 PUSH1 0x40 MLOAD DUP1 PUSH1 0x60 ADD PUSH1 0x40 MSTORE DUP1 PUSH1 0x40 DUP2 MSTORE PUSH1 0x20 ADD PUSH2 0x2F56 PUSH1 0x40 SWAP2 CODECOPY SWAP1 POP PUSH1 0x0 PUSH1 0x3 DUP5 MLOAD PUSH1 0x2 ADD DUP2 PUSH2 0x239B JUMPI INVALID JUMPDEST DIV PUSH1 0x4 MUL SWAP1 POP PUSH1 0x0 DUP2 PUSH1 0x20 ADD PUSH8 0xFFFFFFFFFFFFFFFF DUP2 GT DUP1 ISZERO PUSH2 0x23BD JUMPI PUSH1 0x0 DUP1 REVERT JUMPDEST POP PUSH1 0x40 MLOAD SWAP1 DUP1 DUP3 MSTORE DUP1 PUSH1 0x1F ADD PUSH1 0x1F NOT AND PUSH1 0x20 ADD DUP3 ADD PUSH1 0x40 MSTORE DUP1 ISZERO PUSH2 0x23E8 JUMPI PUSH1 0x20 DUP3 ADD DUP2 DUP1 CALLDATASIZE DUP4 CALLDATACOPY ADD SWAP1 POP JUMPDEST POP SWAP1 POP DUP2 DUP2 MSTORE PUSH1 0x1 DUP4 ADD DUP6 DUP7 MLOAD DUP2 ADD PUSH1 0x20 DUP5 ADD JUMPDEST DUP2 DUP4 LT ISZERO PUSH2 0x2454 JUMPI PUSH1 0x3 DUP4 ADD SWAP3 POP DUP3 MLOAD PUSH1 0x3F DUP2 PUSH1 0x12 SHR AND DUP6 ADD MLOAD DUP3 MSTORE8 PUSH1 0x1 DUP3 ADD SWAP2 POP PUSH1 0x3F DUP2 PUSH1 0xC SHR AND DUP6 ADD MLOAD DUP3 MSTORE8 PUSH1 0x1 DUP3 ADD SWAP2 POP PUSH1 0x3F DUP2 PUSH1 0x6 SHR AND DUP6 ADD MLOAD DUP3 MSTORE8 PUSH1 0x1 DUP3 ADD SWAP2 POP PUSH1 0x3F DUP2 AND DUP6 ADD MLOAD DUP3 MSTORE8 POP PUSH1 0x1 ADD PUSH2 0x23FC JUMP JUMPDEST PUSH1 0x3 DUP10 MLOAD MOD PUSH1 0x1 DUP2 EQ PUSH2 0x246E JUMPI PUSH1 0x2 DUP2 EQ PUSH2 0x247F JUMPI PUSH2 0x248B JUMP JUMPDEST PUSH2 0x3D3D PUSH1 0xF0 SHL PUSH1 0x1 NOT DUP4 ADD MSTORE PUSH2 0x248B JUMP JUMPDEST PUSH1 0x3D PUSH1 0xF8 SHL PUSH1 0x0 NOT DUP4 ADD MSTORE JUMPDEST POP SWAP4 SWAP9 SWAP8 POP POP POP POP POP POP POP POP JUMP JUMPDEST PUSH1 0x0 PUSH2 0xE6D DUP4 DUP4 PUSH2 0x283A JUMP JUMPDEST SLOAD SWAP1 JUMP JUMPDEST PUSH1 0x0 PUSH2 0xE6D DUP4 DUP4 PUSH2 0x2852 JUMP JUMPDEST PUSH1 0x0 PUSH2 0xE6D DUP4 DUP4 PUSH2 0x2918 JUMP JUMPDEST PUSH1 0x0 PUSH2 0x22BA DUP5 DUP5 PUSH1 0x1 PUSH1 0x1 PUSH1 0xA0 SHL SUB DUP6 AND PUSH2 0x2962 JUMP JUMPDEST DUP2 SLOAD PUSH1 0x0 SWAP1 DUP3 LT PUSH2 0x2519 JUMPI PUSH1 0x40 MLOAD PUSH3 0x461BCD PUSH1 0xE5 SHL DUP2 MSTORE PUSH1 0x4 ADD DUP1 DUP1 PUSH1 0x20 ADD DUP3 DUP2 SUB DUP3 MSTORE PUSH1 0x22 DUP2 MSTORE PUSH1 0x20 ADD DUP1 PUSH2 0x2CF3 PUSH1 0x22 SWAP2 CODECOPY PUSH1 0x40 ADD SWAP2 POP POP PUSH1 0x40 MLOAD DUP1 SWAP2 SUB SWAP1 REVERT JUMPDEST DUP3 PUSH1 0x0 ADD DUP3 DUP2 SLOAD DUP2 LT PUSH2 0x2528 JUMPI INVALID JUMPDEST SWAP1 PUSH1 0x0 MSTORE PUSH1 0x20 PUSH1 0x0 KECCAK256 ADD SLOAD SWAP1 POP SWAP3 SWAP2 POP POP JUMP JUMPDEST PUSH2 0x2545 DUP4 DUP4 PUSH2 0x29F9 JUMP JUMPDEST PUSH2 0x2552 PUSH1 0x0 DUP5 DUP5 DUP5 PUSH2 0x26D2 JUMP JUMPDEST PUSH2 0xBBF JUMPI PUSH1 0x40 MLOAD PUSH3 0x461BCD PUSH1 0xE5 SHL DUP2 MSTORE PUSH1 0x4 ADD DUP1 DUP1 PUSH1 0x20 ADD DUP3 DUP2 SUB DUP3 MSTORE PUSH1 0x32 DUP2 MSTORE PUSH1 0x20 ADD DUP1 PUSH2 0x2D60 PUSH1 0x32 SWAP2 CODECOPY PUSH1 0x40 ADD SWAP2 POP POP PUSH1 0x40 MLOAD DUP1 SWAP2 SUB SWAP1 REVERT JUMPDEST DUP2 SLOAD PUSH1 0x0 SWAP1 DUP2 SWAP1 DUP4 LT PUSH2 0x25D1 JUMPI PUSH1 0x40 MLOAD PUSH3 0x461BCD PUSH1 0xE5 SHL DUP2 MSTORE PUSH1 0x4 ADD DUP1 DUP1 PUSH1 0x20 ADD DUP3 DUP2 SUB DUP3 MSTORE PUSH1 0x22 DUP2 MSTORE PUSH1 0x20 ADD DUP1 PUSH2 0x2F96 PUSH1 0x22 SWAP2 CODECOPY PUSH1 0x40 ADD SWAP2 POP POP PUSH1 0x40 MLOAD DUP1 SWAP2 SUB SWAP1 REVERT JUMPDEST PUSH1 0x0 DUP5 PUSH1 0x0 ADD DUP5 DUP2 SLOAD DUP2 LT PUSH2 0x25E2 JUMPI INVALID JUMPDEST SWAP1 PUSH1 0x0 MSTORE PUSH1 0x20 PUSH1 0x0 KECCAK256 SWAP1 PUSH1 0x2 MUL ADD SWAP1 POP DUP1 PUSH1 0x0 ADD SLOAD DUP2 PUSH1 0x1 ADD SLOAD SWAP3 POP SWAP3 POP POP SWAP3 POP SWAP3 SWAP1 POP JUMP JUMPDEST PUSH1 0x0 DUP3 DUP2 MSTORE PUSH1 0x1 DUP5 ADD PUSH1 0x20 MSTORE PUSH1 0x40 DUP2 KECCAK256 SLOAD DUP3 DUP2 PUSH2 0x26A3 JUMPI PUSH1 0x40 MLOAD PUSH3 0x461BCD PUSH1 0xE5 SHL DUP2 MSTORE PUSH1 0x4 ADD DUP1 DUP1 PUSH1 0x20 ADD DUP3 DUP2 SUB DUP3 MSTORE DUP4 DUP2 DUP2 MLOAD DUP2 MSTORE PUSH1 0x20 ADD SWAP2 POP DUP1 MLOAD SWAP1 PUSH1 0x20 ADD SWAP1 DUP1 DUP4 DUP4 PUSH1 0x0 JUMPDEST DUP4 DUP2 LT ISZERO PUSH2 0x2668 JUMPI DUP2 DUP2 ADD MLOAD DUP4 DUP3 ADD MSTORE PUSH1 0x20 ADD PUSH2 0x2650 JUMP JUMPDEST POP POP POP POP SWAP1 POP SWAP1 DUP2 ADD SWAP1 PUSH1 0x1F AND DUP1 ISZERO PUSH2 0x2695 JUMPI DUP1 DUP3 SUB DUP1 MLOAD PUSH1 0x1 DUP4 PUSH1 0x20 SUB PUSH2 0x100 EXP SUB NOT AND DUP2 MSTORE PUSH1 0x20 ADD SWAP2 POP JUMPDEST POP SWAP3 POP POP POP PUSH1 0x40 MLOAD DUP1 SWAP2 SUB SWAP1 REVERT JUMPDEST POP DUP5 PUSH1 0x0 ADD PUSH1 0x1 DUP3 SUB DUP2 SLOAD DUP2 LT PUSH2 0x26B6 JUMPI INVALID JUMPDEST SWAP1 PUSH1 0x0 MSTORE PUSH1 0x20 PUSH1 0x0 KECCAK256 SWAP1 PUSH1 0x2 MUL ADD PUSH1 0x1 ADD SLOAD SWAP2 POP POP SWAP4 SWAP3 POP POP POP JUMP JUMPDEST PUSH1 0x0 PUSH2 0x26E6 DUP5 PUSH1 0x1 PUSH1 0x1 PUSH1 0xA0 SHL SUB AND PUSH2 0x2B27 JUMP JUMPDEST PUSH2 0x26F2 JUMPI POP PUSH1 0x1 PUSH2 0x2032 JUMP JUMPDEST PUSH1 0x0 PUSH2 0x2800 PUSH4 0xA85BD01 PUSH1 0xE1 SHL PUSH2 0x2707 PUSH2 0x1F19 JUMP JUMPDEST DUP9 DUP8 DUP8 PUSH1 0x40 MLOAD PUSH1 0x24 ADD DUP1 DUP6 PUSH1 0x1 PUSH1 0x1 PUSH1 0xA0 SHL SUB AND DUP2 MSTORE PUSH1 0x20 ADD DUP5 PUSH1 0x1 PUSH1 0x1 PUSH1 0xA0 SHL SUB AND DUP2 MSTORE PUSH1 0x20 ADD DUP4 DUP2 MSTORE PUSH1 0x20 ADD DUP1 PUSH1 0x20 ADD DUP3 DUP2 SUB DUP3 MSTORE DUP4 DUP2 DUP2 MLOAD DUP2 MSTORE PUSH1 0x20 ADD SWAP2 POP DUP1 MLOAD SWAP1 PUSH1 0x20 ADD SWAP1 DUP1 DUP4 DUP4 PUSH1 0x0 JUMPDEST DUP4 DUP2 LT ISZERO PUSH2 0x276E JUMPI DUP2 DUP2 ADD MLOAD DUP4 DUP3 ADD MSTORE PUSH1 0x20 ADD PUSH2 0x2756 JUMP JUMPDEST POP POP POP POP SWAP1 POP SWAP1 DUP2 ADD SWAP1 PUSH1 0x1F AND DUP1 ISZERO PUSH2 0x279B JUMPI DUP1 DUP3 SUB DUP1 MLOAD PUSH1 0x1 DUP4 PUSH1 0x20 SUB PUSH2 0x100 EXP SUB NOT AND DUP2 MSTORE PUSH1 0x20 ADD SWAP2 POP JUMPDEST POP SWAP6 POP POP POP POP POP POP PUSH1 0x40 MLOAD PUSH1 0x20 DUP2 DUP4 SUB SUB DUP2 MSTORE SWAP1 PUSH1 0x40 MSTORE SWAP1 PUSH1 0x1 PUSH1 0x1 PUSH1 0xE0 SHL SUB NOT AND PUSH1 0x20 DUP3 ADD DUP1 MLOAD PUSH1 0x1 PUSH1 0x1 PUSH1 0xE0 SHL SUB DUP4 DUP2 DUP4 AND OR DUP4 MSTORE POP POP POP POP PUSH1 0x40 MLOAD DUP1 PUSH1 0x60 ADD PUSH1 0x40 MSTORE DUP1 PUSH1 0x32 DUP2 MSTORE PUSH1 0x20 ADD PUSH2 0x2D60 PUSH1 0x32 SWAP2 CODECOPY PUSH1 0x1 PUSH1 0x1 PUSH1 0xA0 SHL SUB DUP9 AND SWAP2 SWAP1 PUSH2 0x2B2D JUMP JUMPDEST SWAP1 POP PUSH1 0x0 DUP2 DUP1 PUSH1 0x20 ADD SWAP1 MLOAD PUSH1 0x20 DUP2 LT ISZERO PUSH2 0x2819 JUMPI PUSH1 0x0 DUP1 REVERT JUMPDEST POP MLOAD PUSH1 0x1 PUSH1 0x1 PUSH1 0xE0 SHL SUB NOT AND PUSH4 0xA85BD01 PUSH1 0xE1 SHL EQ SWAP3 POP POP POP SWAP5 SWAP4 POP POP POP POP JUMP JUMPDEST PUSH1 0x0 SWAP1 DUP2 MSTORE PUSH1 0x1 SWAP2 SWAP1 SWAP2 ADD PUSH1 0x20 MSTORE PUSH1 0x40 SWAP1 KECCAK256 SLOAD ISZERO ISZERO SWAP1 JUMP JUMPDEST PUSH1 0x0 DUP2 DUP2 MSTORE PUSH1 0x1 DUP4 ADD PUSH1 0x20 MSTORE PUSH1 0x40 DUP2 KECCAK256 SLOAD DUP1 ISZERO PUSH2 0x290E JUMPI DUP4 SLOAD PUSH1 0x0 NOT DUP1 DUP4 ADD SWAP2 SWAP1 DUP2 ADD SWAP1 PUSH1 0x0 SWAP1 DUP8 SWAP1 DUP4 SWAP1 DUP2 LT PUSH2 0x2885 JUMPI INVALID JUMPDEST SWAP1 PUSH1 0x0 MSTORE PUSH1 0x20 PUSH1 0x0 KECCAK256 ADD SLOAD SWAP1 POP DUP1 DUP8 PUSH1 0x0 ADD DUP5 DUP2 SLOAD DUP2 LT PUSH2 0x28A2 JUMPI INVALID JUMPDEST PUSH1 0x0 SWAP2 DUP3 MSTORE PUSH1 0x20 DUP1 DUP4 KECCAK256 SWAP1 SWAP2 ADD SWAP3 SWAP1 SWAP3 SSTORE DUP3 DUP2 MSTORE PUSH1 0x1 DUP10 DUP2 ADD SWAP1 SWAP3 MSTORE PUSH1 0x40 SWAP1 KECCAK256 SWAP1 DUP5 ADD SWAP1 SSTORE DUP7 SLOAD DUP8 SWAP1 DUP1 PUSH2 0x28D2 JUMPI INVALID JUMPDEST PUSH1 0x1 SWAP1 SUB DUP2 DUP2 SWAP1 PUSH1 0x0 MSTORE PUSH1 0x20 PUSH1 0x0 KECCAK256 ADD PUSH1 0x0 SWAP1 SSTORE SWAP1 SSTORE DUP7 PUSH1 0x1 ADD PUSH1 0x0 DUP8 DUP2 MSTORE PUSH1 0x20 ADD SWAP1 DUP2 MSTORE PUSH1 0x20 ADD PUSH1 0x0 KECCAK256 PUSH1 0x0 SWAP1 SSTORE PUSH1 0x1 SWAP5 POP POP POP POP POP PUSH2 0xE70 JUMP JUMPDEST PUSH1 0x0 SWAP2 POP POP PUSH2 0xE70 JUMP JUMPDEST PUSH1 0x0 PUSH2 0x2924 DUP4 DUP4 PUSH2 0x283A JUMP JUMPDEST PUSH2 0x295A JUMPI POP DUP2 SLOAD PUSH1 0x1 DUP2 DUP2 ADD DUP5 SSTORE PUSH1 0x0 DUP5 DUP2 MSTORE PUSH1 0x20 DUP1 DUP3 KECCAK256 SWAP1 SWAP4 ADD DUP5 SWAP1 SSTORE DUP5 SLOAD DUP5 DUP3 MSTORE DUP3 DUP7 ADD SWAP1 SWAP4 MSTORE PUSH1 0x40 SWAP1 KECCAK256 SWAP2 SWAP1 SWAP2 SSTORE PUSH2 0xE70 JUMP JUMPDEST POP PUSH1 0x0 PUSH2 0xE70 JUMP JUMPDEST PUSH1 0x0 DUP3 DUP2 MSTORE PUSH1 0x1 DUP5 ADD PUSH1 0x20 MSTORE PUSH1 0x40 DUP2 KECCAK256 SLOAD DUP1 PUSH2 0x29C7 JUMPI POP POP PUSH1 0x40 DUP1 MLOAD DUP1 DUP3 ADD DUP3 MSTORE DUP4 DUP2 MSTORE PUSH1 0x20 DUP1 DUP3 ADD DUP5 DUP2 MSTORE DUP7 SLOAD PUSH1 0x1 DUP2 DUP2 ADD DUP10 SSTORE PUSH1 0x0 DUP10 DUP2 MSTORE DUP5 DUP2 KECCAK256 SWAP6 MLOAD PUSH1 0x2 SWAP1 SWAP4 MUL SWAP1 SWAP6 ADD SWAP2 DUP3 SSTORE SWAP2 MLOAD SWAP1 DUP3 ADD SSTORE DUP7 SLOAD DUP7 DUP5 MSTORE DUP2 DUP9 ADD SWAP1 SWAP3 MSTORE SWAP3 SWAP1 SWAP2 KECCAK256 SSTORE PUSH2 0x22BD JUMP JUMPDEST DUP3 DUP6 PUSH1 0x0 ADD PUSH1 0x1 DUP4 SUB DUP2 SLOAD DUP2 LT PUSH2 0x29DA JUMPI INVALID JUMPDEST SWAP1 PUSH1 0x0 MSTORE PUSH1 0x20 PUSH1 0x0 KECCAK256 SWAP1 PUSH1 0x2 MUL ADD PUSH1 0x1 ADD DUP2 SWAP1 SSTORE POP PUSH1 0x0 SWAP2 POP POP PUSH2 0x22BD JUMP JUMPDEST PUSH1 0x1 PUSH1 0x1 PUSH1 0xA0 SHL SUB DUP3 AND PUSH2 0x2A54 JUMPI PUSH1 0x40 DUP1 MLOAD PUSH3 0x461BCD PUSH1 0xE5 SHL DUP2 MSTORE PUSH1 0x20 PUSH1 0x4 DUP3 ADD DUP2 SWAP1 MSTORE PUSH1 0x24 DUP3 ADD MSTORE PUSH32 0x4552433732313A206D696E7420746F20746865207A65726F2061646472657373 PUSH1 0x44 DUP3 ADD MSTORE SWAP1 MLOAD SWAP1 DUP2 SWAP1 SUB PUSH1 0x64 ADD SWAP1 REVERT JUMPDEST PUSH2 0x2A5D DUP2 PUSH2 0x1F0C JUMP JUMPDEST ISZERO PUSH2 0x2AAF JUMPI PUSH1 0x40 DUP1 MLOAD PUSH3 0x461BCD PUSH1 0xE5 SHL DUP2 MSTORE PUSH1 0x20 PUSH1 0x4 DUP3 ADD MSTORE PUSH1 0x1C PUSH1 0x24 DUP3 ADD MSTORE PUSH32 0x4552433732313A20746F6B656E20616C7265616479206D696E74656400000000 PUSH1 0x44 DUP3 ADD MSTORE SWAP1 MLOAD SWAP1 DUP2 SWAP1 SUB PUSH1 0x64 ADD SWAP1 REVERT JUMPDEST PUSH2 0x2ABB PUSH1 0x0 DUP4 DUP4 PUSH2 0xBBF JUMP JUMPDEST PUSH1 0x1 PUSH1 0x1 PUSH1 0xA0 SHL SUB DUP3 AND PUSH1 0x0 SWAP1 DUP2 MSTORE PUSH1 0x1 PUSH1 0x20 MSTORE PUSH1 0x40 SWAP1 KECCAK256 PUSH2 0x2ADD SWAP1 DUP3 PUSH2 0x24B5 JUMP JUMPDEST POP PUSH2 0x2AEA PUSH1 0x2 DUP3 DUP5 PUSH2 0x24C1 JUMP JUMPDEST POP PUSH1 0x40 MLOAD DUP2 SWAP1 PUSH1 0x1 PUSH1 0x1 PUSH1 0xA0 SHL SUB DUP5 AND SWAP1 PUSH1 0x0 SWAP1 PUSH32 0xDDF252AD1BE2C89B69C2B068FC378DAA952BA7F163C4A11628F55A4DF523B3EF SWAP1 DUP3 SWAP1 LOG4 POP POP JUMP JUMPDEST EXTCODESIZE ISZERO ISZERO SWAP1 JUMP JUMPDEST PUSH1 0x60 PUSH2 0x22BA DUP5 DUP5 PUSH1 0x0 DUP6 DUP6 PUSH2 0x2B41 DUP6 PUSH2 0x2B27 JUMP JUMPDEST PUSH2 0x2B92 JUMPI PUSH1 0x40 DUP1 MLOAD PUSH3 0x461BCD PUSH1 0xE5 SHL DUP2 MSTORE PUSH1 0x20 PUSH1 0x4 DUP3 ADD MSTORE PUSH1 0x1D PUSH1 0x24 DUP3 ADD MSTORE PUSH32 0x416464726573733A2063616C6C20746F206E6F6E2D636F6E7472616374000000 PUSH1 0x44 DUP3 ADD MSTORE SWAP1 MLOAD SWAP1 DUP2 SWAP1 SUB PUSH1 0x64 ADD SWAP1 REVERT JUMPDEST PUSH1 0x0 DUP1 DUP7 PUSH1 0x1 PUSH1 0x1 PUSH1 0xA0 SHL SUB AND DUP6 DUP8 PUSH1 0x40 MLOAD DUP1 DUP3 DUP1 MLOAD SWAP1 PUSH1 0x20 ADD SWAP1 DUP1 DUP4 DUP4 JUMPDEST PUSH1 0x20 DUP4 LT PUSH2 0x2BD0 JUMPI DUP1 MLOAD DUP3 MSTORE PUSH1 0x1F NOT SWAP1 SWAP3 ADD SWAP2 PUSH1 0x20 SWAP2 DUP3 ADD SWAP2 ADD PUSH2 0x2BB1 JUMP JUMPDEST PUSH1 0x1 DUP4 PUSH1 0x20 SUB PUSH2 0x100 EXP SUB DUP1 NOT DUP3 MLOAD AND DUP2 DUP5 MLOAD AND DUP1 DUP3 OR DUP6 MSTORE POP POP POP POP POP POP SWAP1 POP ADD SWAP2 POP POP PUSH1 0x0 PUSH1 0x40 MLOAD DUP1 DUP4 SUB DUP2 DUP6 DUP8 GAS CALL SWAP3 POP POP POP RETURNDATASIZE DUP1 PUSH1 0x0 DUP2 EQ PUSH2 0x2C32 JUMPI PUSH1 0x40 MLOAD SWAP2 POP PUSH1 0x1F NOT PUSH1 0x3F RETURNDATASIZE ADD AND DUP3 ADD PUSH1 0x40 MSTORE RETURNDATASIZE DUP3 MSTORE RETURNDATASIZE PUSH1 0x0 PUSH1 0x20 DUP5 ADD RETURNDATACOPY PUSH2 0x2C37 JUMP JUMPDEST PUSH1 0x60 SWAP2 POP JUMPDEST POP SWAP2 POP SWAP2 POP PUSH2 0x2C47 DUP3 DUP3 DUP7 PUSH2 0x2C52 JUMP JUMPDEST SWAP8 SWAP7 POP POP POP POP POP POP POP JUMP JUMPDEST PUSH1 0x60 DUP4 ISZERO PUSH2 0x2C61 JUMPI POP DUP2 PUSH2 0x22BD JUMP JUMPDEST DUP3 MLOAD ISZERO PUSH2 0x2C71 JUMPI DUP3 MLOAD DUP1 DUP5 PUSH1 0x20 ADD REVERT JUMPDEST PUSH1 0x40 MLOAD PUSH3 0x461BCD PUSH1 0xE5 SHL DUP2 MSTORE PUSH1 0x20 PUSH1 0x4 DUP3 ADD DUP2 DUP2 MSTORE DUP5 MLOAD PUSH1 0x24 DUP5 ADD MSTORE DUP5 MLOAD DUP6 SWAP4 SWAP2 SWAP3 DUP4 SWAP3 PUSH1 0x44 ADD SWAP2 SWAP1 DUP6 ADD SWAP1 DUP1 DUP4 DUP4 PUSH1 0x0 DUP4 ISZERO PUSH2 0x2668 JUMPI DUP2 DUP2 ADD MLOAD DUP4 DUP3 ADD MSTORE PUSH1 0x20 ADD PUSH2 0x2650 JUMP JUMPDEST POP DUP1 SLOAD PUSH1 0x0 DUP3 SSTORE SWAP1 PUSH1 0x0 MSTORE PUSH1 0x20 PUSH1 0x0 KECCAK256 SWAP1 DUP2 ADD SWAP1 PUSH2 0x2CD6 SWAP2 SWAP1 PUSH2 0x2CD9 JUMP JUMPDEST POP JUMP JUMPDEST JUMPDEST DUP1 DUP3 GT ISZERO PUSH2 0x2CEE JUMPI PUSH1 0x0 DUP2 SSTORE PUSH1 0x1 ADD PUSH2 0x2CDA JUMP JUMPDEST POP SWAP1 JUMP INVALID GASLIMIT PUSH15 0x756D657261626C655365743A20696E PUSH5 0x6578206F75 PUSH21 0x206F6620626F756E64735075707079526166666C65 GASPRICE KECCAK256 CHAINID PUSH2 0x696C PUSH6 0x6420746F2077 PUSH10 0x74686472617720666565 PUSH20 0x5075707079526166666C653A204F6E6C79207468 PUSH6 0x20706C617965 PUSH19 0x2063616E20726566756E644552433732313A20 PUSH21 0x72616E7366657220746F206E6F6E20455243373231 MSTORE PUSH6 0x636569766572 KECCAK256 PUSH10 0x6D706C656D656E746572 0x4F PUSH24 0x6E61626C653A206E6577206F776E65722069732074686520 PUSH27 0x65726F20616464726573735075707079526166666C653A204D7573 PUSH21 0x2073656E6420656E6F75676820746F20656E746572 KECCAK256 PUSH19 0x6166666C655075707079526166666C653A2055 MSTORE 0x49 KECCAK256 PUSH18 0x7565727920666F72206E6F6E657869737465 PUSH15 0x7420746F6B656E4552433732313A20 PUSH21 0x72616E7366657220746F20746865207A65726F2061 PUSH5 0x6472657373 COINBASE PUSH5 0x6472657373 GASPRICE KECCAK256 PUSH22 0x6E61626C6520746F2073656E642076616C75652C2072 PUSH6 0x63697069656E PUSH21 0x206D61792068617665207265766572746564455243 CALLDATACOPY ORIGIN BALANCE GASPRICE KECCAK256 PUSH16 0x70657261746F7220717565727920666F PUSH19 0x206E6F6E6578697374656E7420746F6B656E45 MSTORE NUMBER CALLDATACOPY ORIGIN BALANCE GASPRICE KECCAK256 PUSH2 0x7070 PUSH19 0x6F76652063616C6C6572206973206E6F74206F PUSH24 0x6E6572206E6F7220617070726F76656420666F7220616C6C GASLIMIT MSTORE NUMBER CALLDATACOPY ORIGIN BALANCE GASPRICE KECCAK256 PUSH3 0x616C61 PUSH15 0x636520717565727920666F72207468 PUSH6 0x207A65726F20 PUSH2 0x6464 PUSH19 0x6573734552433732313A206F776E6572207175 PUSH6 0x727920666F72 KECCAK256 PUSH15 0x6F6E6578697374656E7420746F6B65 PUSH15 0x5075707079526166666C653A205468 PUSH6 0x726520617265 KECCAK256 PUSH4 0x75727265 PUSH15 0x746C7920706C617965727320616374 PUSH10 0x76652141424344454647 0x48 0x49 0x4A 0x4B 0x4C 0x4D 0x4E 0x4F POP MLOAD MSTORE MSTORE8 SLOAD SSTORE JUMP JUMPI PC MSIZE GAS PUSH2 0x6263 PUSH5 0x6566676869 PUSH11 0x6B6C6D6E6F707172737475 PUSH23 0x7778797A303132333435363738392B2F456E756D657261 PUSH3 0x6C654D PUSH2 0x703A KECCAK256 PUSH10 0x6E646578206F7574206F PUSH7 0x20626F756E6473 GASLIMIT MSTORE NUMBER CALLDATACOPY ORIGIN BALANCE GASPRICE KECCAK256 PUSH2 0x7070 PUSH19 0x6F76656420717565727920666F72206E6F6E65 PUSH25 0x697374656E7420746F6B656E5075707079526166666C653A20 POP PUSH13 0x6179657220616C726561647920 PUSH19 0x6566756E6465642C206F72206973206E6F7420 PUSH2 0x6374 PUSH10 0x76654552433732313A20 PUSH21 0x72616E73666572206F6620746F6B656E2074686174 KECCAK256 PUSH10 0x73206E6F74206F776E45 MSTORE NUMBER CALLDATACOPY ORIGIN BALANCE GASPRICE KECCAK256 PUSH2 0x7070 PUSH19 0x6F76616C20746F2063757272656E74206F776E PUSH6 0x725075707079 MSTORE PUSH2 0x6666 PUSH13 0x653A204661696C656420746F20 PUSH20 0x656E64207072697A6520706F6F6C20746F207769 PUSH15 0x6E65724552433732313A207472616E PUSH20 0x6665722063616C6C6572206973206E6F74206F77 PUSH15 0x6572206E6F7220617070726F766564 0x22 PUSH2 0x7474 PUSH19 0x696275746573223A205B7B2274726169745F74 PUSH26 0x7065223A2022726172697479222C202276616C7565223A205075 PUSH17 0x7079526166666C653A204E656564206174 KECCAK256 PUSH13 0x65617374203420706C61796572 PUSH20 0x222C20226465736372697074696F6E223A22416E KECCAK256 PUSH2 0x646F PUSH19 0x61626C6520707570707921222C20A264697066 PUSH20 0x58221220A199DEC0272191C101BB64F1F8D5B408 0xD0 MLOAD PUSH24 0x820AD1DB8A2D98DE2218A02A7E64736F6C63430007060033 PUSH10 0x7066733A2F2F516D5978 CALLDATASIZE SELFBALANCE PUSH20 0x59414B6E4E7A5A3941364E76454B56396E663156 PUSH2 0x447A 0x4A PUSH19 0x7144523233593859536B65624C55697066733A 0x2F 0x2F MLOAD PUSH14 0x5373595278334C7044416231475A MLOAD PUSH14 0x377A5A314175485A6A6662506B44 CALLDATASIZE 0x4A CALLDATACOPY PUSH20 0x397234317875316D6638697066733A2F2F516D55 POP PUSH11 0x41444647454B6D666F6864 SLOAD PUSH2 0x4E63 JUMPI PUSH9 0x703756476B32366835 PUSH11 0x5844413776335674546E54 0x4C PUSH4 0x57000000 ","linkReferences":{}},"methodIdentifiers":{"COMMON_RARITY()":"bd71a521","LEGENDARY_RARITY()":"bd7c40c7","RARE_RARITY()":"db2c0b91","approve(address,uint256)":"095ea7b3","balanceOf(address)":"70a08231","baseURI()":"6c0360eb","changeFeeAddress(address)":"285e1406","enterRaffle(address[])":"e1a0f7e7","entranceFee()":"649677e1","feeAddress()":"41275358","getActivePlayerIndex(address)":"db2cea75","getApproved(uint256)":"081812fc","isApprovedForAll(address,address)":"e985e9c5","name()":"06fdde03","owner()":"8da5cb5b","ownerOf(uint256)":"6352211e","players(uint256)":"f71d96cb","previousWinner()":"5c6059ee","raffleDuration()":"b2f8846b","raffleStartTime()":"3be539ee","rarityToName(uint256)":"970c76e1","rarityToUri(uint256)":"4a038beb","refund(uint256)":"278ecde1","renounceOwnership()":"715018a6","safeTransferFrom(address,address,uint256)":"42842e0e","safeTransferFrom(address,address,uint256,bytes)":"b88d4fde","selectWinner()":"33a99e04","setApprovalForAll(address,bool)":"a22cb465","supportsInterface(bytes4)":"01ffc9a7","symbol()":"95d89b41","tokenByIndex(uint256)":"4f6ccce7","tokenIdToRarity(uint256)":"6be88980","tokenOfOwnerByIndex(address,uint256)":"2f745c59","tokenURI(uint256)":"c87b56dd","totalFees()":"13114a9d","totalSupply()":"18160ddd","transferFrom(address,address,uint256)":"23b872dd","transferOwnership(address)":"f2fde38b","withdrawFees()":"476343ee"}}}}}